:020000040000FA
:060000000A128A110C280F
:10000800FE00030EF1000A08F2000A128A111528F0
:100018000A128A110F28F301F40183010A128A11C6
:100028005A288B1C182819281F28740883120313B0
:1000380093008B100715831203138C1D2428252881
:1000480032281308F0007008F300730888001413AE
:10005800941394128712941607118C1172088A004F
:10006800710E8300FE0E7E0E09008316031307111E
:1000780087150716871207309F00851606149413F4
:100088001413831203139413141394161412941153
:100098001415941014108B170B160B1783160313D3
:1000A8008C150113831203138C1108000A128A118C
:1000B80039200A128A118316031388018312031345
:0A00C800880165280A128A110C282D
:02400E003A3F37
:00000001FF
