:020000040000FA
:060000000A128A11FC2F18
:100B7000F10083120313061371088700861786138A
:100B80004230F000F00BC22D00000800F4007403A6
:100B90000319CB2DCC2DD12DC030F5000030F6003F
:100BA000D52D8030F5000030F60073087507FF3E44
:100BB000F70077080A128A11FE250A128A11080026
:100BC000F200831203130617720887008617861334
:100BD0007208F00003300310F00DFF3E031DEB2DF3
:100BE0000310700D8700861786130730F1007D30E3
:100BF000F000F00BF92DF10BF92D0800F200831233
:100C00000313061372088700861786137208F00014
:100C100003300310F00DFF3E031D092E0310700D6D
:100C2000870086178613033072020318182E192EB8
:100C3000232E0D30F100FB30F000F00B1D2EF10BD8
:100C40001D2E222E2B2E0730F1007D30F000F00BF0
:100C5000272EF10B272E0800831603130613861385
:100C6000870130300A128A11B8250A128A11213000
:100C7000F4007630F300F30B3B2EF40B3B2E000018
:100C800030300A128A11B8250A128A110730F4008E
:100C90007D30F300F30B4A2EF40B4A2E30300A124B
:100CA0008A11B8250A128A1128300A128A11B82529
:100CB0000A128A1128300A128A11FE250A128A1194
:100CC00001300A128A11FE250A128A110E300A1208
:100CD0008A11FE250A128A11080083120313A1014A
:100CE000FC1F732E742E7B2EFB09FC09FB0A0319D3
:100CF000FC0AA101A10AFA1F7E2E7F2E842EF9097B
:100D0000FA09F90A0319FA0A79087A040319892EEB
:100D10008A2EB92EA001A00A982E01300310F90DD9
:100D2000FA0DFF3E031D8E2E0130FD007D08A00749
:100D3000FA1F9B2E9C2E8D2E7A087C02031DA22E5C
:100D400079087B02031CA52EA62EAC2E7908FB0287
:100D50007A08031CFC03FC0201300310FA0CF90CA6
:100D6000FF3E031DAD2E0130A002031DB82EB92E8B
:100D70009C2E21080319BD2EBE2EC32EFB09FC0993
:100D8000FB0A0319FC0A7C08FA007B08F90008003A
:100D9000F601F11FCC2ECD2ED42EF009F109F00A68
:100DA0000319F10AF601F60AF31FD72ED82EE12E09
:100DB000F209F309F20A0319F30A0130F400740886
:100DC000F606F701F801700871040319E82EE92E00
:100DD000202FF501F50AF72E01300310F00DF10D6B
:100DE000FF3E031DED2E0130F4007408F507F11FDE
:100DF000FA2EFB2EEC2E01300310F70DF80DFF3EFE
:100E0000031DFC2E71087302031D082F7008720267
:100E1000031C0B2F0C2F132F7008F2027108031CF8
:100E2000F303F302771401300310F10CF00CFF3ED2
:100E3000031D142F0130F502031D1F2F202FFB2E41
:100E400076080319242F252F2A2FF709F809F70A06
:100E50000319F80A7808F1007708F00008000A1270
:100E60008A112C260A128A11FF308316031385007B
:100E7000C0309F000130831203139F009E01831630
:100E800003139E01073083120313A5000030A60050
:100E9000831203132508A20002300310A20DFF3EA7
:100EA000031D4D2F0310220DA30023089F04823041
:100EB00083120313A300DD30A200A20B5D2FA30B4E
:100EC0005D2F831203131F151F19672F682F642FBF
:100ED0001E08A800831603131E0883120313A7001D
:100EE000F301F30A01300A128A11C6250A128A1187
:100EF000E830F0000330F100831203132808F300F8
:100F00002708F2000A128A11C8260A128A117008EC
:100F1000303E0A128A11E0250A128A110A30F900BD
:100F20000030FA006430F0000030F1008312031347
:100F30002808F3002708F2000A128A11C8260A12AC
:100F40008A117108FC007008FB000A128A116D26D4
:100F50000A128A117908303E0A128A11E0250A1213
:100F60008A110A30F9000030FA000A30F00000302F
:100F7000F100831203132808F3002708F2000A1275
:100F80008A11C8260A128A117108FC007008FB0039
:100F90000A128A116D260A128A117908303E0A1245
:100FA0008A11E0250A128A110A30F9000030FA008D
:100FB000831203132808FC002708FB000A128A1179
:100FC0006D260A128A117908303E0A128A11E0252C
:100FD0000A128A11033083120313A4008A30A3007B
:100FE0005530A200A20BF22FA30BF22FA40BF22F6D
:100FF000482F0A128A11002883010A128A112F2F02
:02400E003A3F37
:00000001FF
