:020000040000FA
:060000000A128A11122809
:10000800FE00030EF7000408F8000A08F90083123E
:1000180003137F08FA000A128A11072D0A128A119F
:100028001528FC018313A0308400D2300A128A11EB
:10003800F9250A128A1183010A128A11E72B831201
:100048000313A70083160313881083120313881061
:10005800823083120313A200DD30A100A10B3228E5
:10006800A20B3228831203138814A801A80A0030AF
:100078000A128A1109260A128A114828881C45285A
:1000880046284828A80156280A128A110F260A125B
:100098008A1183120313A1000F302102031C552873
:1000A80056284228280803195A285B285D2800305A
:1000B800FC2A83160313881483120313A801A80AC1
:1000C80000300A128A1109260A128A117128881822
:1000D8006E286F287128A8017F280A128A110F2616
:1000E8000A128A1183120313A10046302102031C4D
:1000F8007E287F286B2828080319832884288528C8
:100108005B28A801A80A00300A128A1109260A12D7
:100118008A119428881C912892289428A801A2283A
:100128000A128A110F260A128A1183120313A100D8
:1001380073302102031CA128A2288E28280803193D
:10014800A628A728A8285B28A801A80A00300A1210
:100158008A1109260A128A11B7288818B428B528DE
:10016800B728A801C5280A128A110F260A128A116F
:1001780083120313A10073302102031CC428C5286D
:10018800B12828080319C928CA28CB285B28A60142
:10019800A801A80A00300A128A1109260A128A112F
:1001A800DB28881CD828D928DB28A801E9280A12C6
:1001B8008A110F260A128A1183120313A1005530DF
:1001C8002102031CE828E928D52828080319ED2866
:1001D800EE28EF285B28A801A80A00300A128A1125
:1001E80009260A128A11FE288818FB28FC28FE28EE
:1001F800A8010C290A128A110F260A128A118312E1
:100208000313A1006E302102031C0B290C29F828C6
:10021800280803191029112912295B2827088400A6
:1002280003108313800D0A128A110F260A128A11ED
:1002380083120313A1003D302102031C2429252920
:10024800292927088400831300140130A1002108FC
:10025800A60708302602031C32293329CC28A60118
:10026800A801A80A00300A128A1109260A128A115E
:100278004329881C402941294329A80151290A12E8
:100288008A110F260A128A1183120313A10055300E
:100298002102031C502951293D29280803195529F1
:1002A800562957295B28A801A80A00300A128A1182
:1002B80009260A128A116629881863296429662979
:1002C800A80174290A128A110F260A128A118312A8
:1002D8000313A1006E302102031C732974296029BD
:1002E80028080319782979297A295B28270A84009C
:1002F80003108313800D0A128A110F260A128A111D
:1003080083120313A1003D302102031C8C298D297F
:100318009129270A8400831300140130A1002108C1
:10032800A60708302602031C9A299B293429A6010E
:10033800A801A80A00300A128A1109260A128A118D
:10034800AB29881CA829A929AB29A801B9290A120F
:100358008A110F260A128A1183120313A10055303D
:100368002102031CB829B929A52928080319BD2980
:10037800BE29BF295B28A801A80A00300A128A11E1
:1003880009260A128A11CE298818CB29CC29CE2908
:10039800A801DC290A128A110F260A128A1183126F
:1003A8000313A1006E302102031CDB29DC29C829B4
:1003B80028080319E029E129E2295B282708023ED9
:1003C800840003108313800D0A128A110F260A1263
:1003D8008A1183120313A1003D302102031CF52961
:1003E800F629FB292708023E8400831300140130F4
:1003F800A1002108A60708302602031C042A052AA2
:100408009C29A601A801A80A00300A128A11092607
:100418000A128A11152A881C122A132A152AA801D9
:10042800232A0A128A110F260A128A118312031329
:10043800A10055302102031C222A232A0F2A28084A
:100448000319272A282A292A5B28A801A80A003084
:100458000A128A1109260A128A11382A8818352A96
:10046800362A382AA801462A0A128A110F260A12A1
:100478008A1183120313A1006E302102031C452A3E
:10048800462A322A280803194A2A4B2A4C2A5B286A
:100498002708033E840003108313800D0A128A1173
:1004A8000F260A128A1183120313A1003D3021027C
:1004B800031C5F2A602A652A2708033E84008313E9
:1004C80000140130A1002108A60708302602031CE9
:1004D8006E2A6F2A062AA601A801A80A00300A1265
:1004E8008A1109260A128A117F2A881C7C2A7D2AE9
:1004F8007F2AA8018D2A0A128A110F260A128A1148
:1005080083120313A10055302102031C8C2A8D2A63
:10051800792A28080319912A922A932A5B28A80184
:10052800A80A00300A128A1109260A128A11A22A78
:1005380088189F2AA02AA22AA801B02A0A128A117A
:100548000F260A128A1183120313A1006E302102AA
:10055800031CAF2AB02A9C2A28080319B42AB52AF2
:10056800B62A5B282708043E840003108313800DF5
:100578000A128A110F260A128A1183120313A10084
:100588003D302102031CC92ACA2ACF2A2708043E63
:100598008400831300140130A1002108A607083045
:1005A8002602031CD82AD92A702A270A8400831312
:1005B8000008A1002708840000082107A2002708D6
:1005C800023E840000082207A3002708033E840097
:1005D80000082307A4002408A5002708043E840077
:1005E800000825060319F92AFA2AFB2A5B28013094
:1005F800080083120313BB002F30B3003308B60082
:10060800D02B25303C0603190A2B0B2B172B3C0843
:10061800B3003B0884003308831380000130B30023
:100628003308BB07D02BB7010130AE07FF302E07C8
:1006380084000A128A1195240A128A11BC00B30098
:10064800B4013408003A03192A2BD02B3308003A96
:100658000319E22B643A0319352B0D3A0319352B8C
:10066800D02B3608840083130008B900840A0008D8
:10067800BA000230B3003308B607BA1F442B452B23
:100688004E2B0330B3003308B704B909BA09B90AC5
:100698000319BA0ABC01BC0A3C08B3003307013E7F
:1006A80084000A128A1195240A128A11B4000A12C7
:1006B8008A1195240A128A11B50035083A02031DD9
:1006C800672B3408390203186A2B6B2B6C2B762B9B
:1006D8000130B3003308BC0705303C06031D752BF9
:1006E800762B502B3708033903197B2B7C2B872B50
:1006F8002D30B3003B088400330883138000013099
:10070800B3003308BB073C08B3003308B800C72B55
:100718000A30A8000030A9003808B3003307013EAA
:1007280084000A128A1195240A128A11A0000A125A
:100738008A1195240A128A11A1003A08A3003908DF
:10074800A2000A128A1145240A128A11831203137D
:100758002108AB002008AA000A128A11CB240A1229
:100768008A11831203132808303EB4003408BC00F1
:100778003C08B3003B088400330883138000013031
:10078800B3003308BB07FF30B3003308B807380A93
:10079800031DCF2BD02B8C2B0130AE07FF302E073B
:1007A80084000A128A1195240A128A11B3003308A8
:1007B800BC003C08031DE12BE22B052B3B08840001
:1007C8008313800108000A128A11F0250A128A117F
:1007D8000A128A119A250A128A110A128A11CD253B
:1007E8000A128A116A300A128A1123200A128A11FF
:1007F800013A031D002C012C272C0B308312031304
:10080800BD003D08AE006C08BE00BF013E08AF0049
:100818003F08B0006A08C000C1014008B1004108A3
:10082800B20042300A128A11FD220A128A1142309D
:1008380083120313A1000030A2000A128A11422574
:100848000A128A11322C2A3083120313A100803035
:10085800A2000A128A1142250A128A110D30831247
:100868000313BF00AF30BE00B530BD00BD0B3A2C3E
:10087800BE0B3A2CBF0B3A2C412CF62B0A128A11CC
:10088800122883120313A501A601200821040319C5
:100898004E2C4F2C862CA701A70A5D2C0130031083
:1008A800A00DA10DFF3E031D532C0130A400240808
:1008B800A707A11F602C612C522C01300310A50D35
:1008C800A60DFF3E031D622C21082302031D6E2C7A
:1008D80020082202031C712C722C792C2008A202F9
:1008E8002108031CA303A302251401300310A10C43
:1008F800A00CFF3E031D7A2C0130A702031D852C96
:10090800862C612C2608A1002508A0000800FF1BE2
:10091800952C83137F1883170008840A0319FF0A8C
:10092800080004308A000408840A8207003401346D
:1009380000340A34003464340034E83403341034A6
:100948002734543465346D3470346534723461340A
:1009580074347534723465343A342034253464344C
:100968002C342034483475346D3469346434693433
:10097800743479343A342034253464340A340034F5
:100988004534723472346F3472340A34003483124A
:100998000313280829040319D22CD32C022DAD01E6
:1009A800AD0AE12C01300310A80DA90DFF3E031D6F
:1009B800D72C0130AC002C08AD07A91FE42CE52C7E
:1009C800D62C29082B02031DEB2C28082A02031C0D
:1009D800EE2CEF2CF52C2808AA022908031CAB03DF
:1009E800AB0201300310A90CA80CFF3E031DF62C26
:1009F8000130AD02031D012D022DE52C2B08A900A5
:100A08002A08A8000800831603138C1E0C2D0D2D30
:100A1800352D831203138C1E122D132D352D1A0814
:100A2800F6007608FB000A307B0603191C2D1D2DE5
:100A38002A2D1A08F6007C08A03E84007608831345
:100A480080000130F6007608FC07352DA0300A1228
:100A58008A11E5250A128A110A128A11AD250A128D
:100A68008A117A0883120313FF0079088A0078082C
:100A78008400770E8300FE0E7E0E09008312031396
:100A8800A4015D2D24082107840022080318220AE6
:100A9800FF000A128A118B240A128A110A128A117B
:100AA800BF250A128A11013083120313A3002308F9
:100AB800A40724082107840022080318220AFF003B
:100AC8000A128A118B240A128A11003A031D6D2D0D
:100AD8006E2D462D0800F401862D740871078400D8
:100AE80072080318720AFF000A128A118B240A126C
:100AF8008A110A128A11D9250A128A110130F300C3
:100B08007308F40774087107840072080318720ADE
:100B180083120313FF000A128A118B240A128A1106
:100B2800003A031D982D992D712D08002030831649
:100B38000313990083120313981783160313981647
:100B4800831203131816831603138C168B170B17AF
:100B58000800F1017108A03E840083138001013070
:100B6800F0007008F10732307102031CBC2DBD2D56
:100B7800AE2DFC01080083120313A0008316031393
:100B8800981CC72DC82DC22D831203132008990065
:100B980008008316031388108312031388100A129F
:100BA8008A1101260A128A110800F000831603131D
:100BB800981CDF2DE02DDA2D70088312031399009D
:100BC8000800F5007508F1000030F2000A128A11D9
:100BD8006F250A128A110800831603130713871753
:100BE8008601831203138601080064008001840AC9
:100BF8000406031900340406FA2D83160313811220
:100C08008111011181100114080083120313A0003F
:0E0C1800200881000800831203130108080061
:02400E003A3F37
:00000001FF
