:020000040000FA
:100000000A128A11E92FFF1B0D2883137F1883170B
:100010000008840A0319FF0A080000308A00040857
:10002000840A820700340134003410340034003470
:1000300001340034103459346F3475347234203440
:1000400063346134723464342734733420346E344E
:1000500075346D34623465347234203461347234F2
:1000600065343A342034253478342C342034253423
:1000700078342C342034253478342C34203425340E
:1000800078342C3420342534783420340D340A3438
:100090000034463469346E34643420346F3475343B
:1000A0007434203461342034633461347234643401
:1000B0003A342034253478342C34203425347834C0
:1000C0000D340A340034573461346934743469347B
:1000D0006E346734203479346F347534723420349C
:1000E0004334613472346434213420340D340A349E
:1000F00000343034313432343334343435343634FB
:1001000037343834393461346234633464346534B8
:04011000663400341D
:1004C2008316031307138717080064008001840A48
:1004D2000406031900340406672A831203139301E6
:1004E2008C1D742A752A712A13080800F0007008FE
:1004F2008312031393008C1D7F2A802A7C2A080012
:100502000330FA007A08F70014300A128A11A32283
:100512000A128A1108000F30F7007708F400013040
:100522000A128A11DC220A128A110800F0008316CC
:100532000313981C9D2A9E2A982A7008831203137B
:1005420099000800F90079080A128A110D230A128B
:100552008A117704F8007808F40079080A128A11DF
:10056200DC220A128A110800203083160313990034
:100572008312031398178316031398168312031317
:100582001816831603138C168B170B170800FA0024
:100592007709F8007A080A128A110D230A128A11C1
:1005A2007805F9007908F4007A080A128A11DC2227
:1005B2000A128A110800F600831203130710760844
:1005C200F50075077E390A128A1177220A128A11FA
:1005D20074080A128A1177220A128A1183120313EB
:1005E20007140800831603130710871083120313DE
:1005F200071487148316031387110716871294139F
:1006020014138312031394131413941614129411D3
:100612001411941014100800F2008312031307102F
:100622007208F10071077E3980380A128A11772226
:100632000A128A110A128A116E220A128A11F10012
:100642007108F30083120313071473080800F401FE
:100652003F2B74087107840072080318720AFF00A6
:100662000A128A1103200A128A110A128A11972287
:100672000A128A110130F3007308F4077408710733
:10068200840072080318720A83120313FF000A120D
:100692008A1103200A128A11003A031D512B522B90
:1006A2002A2B0800F5007008F3007308F70075089C
:1006B200F3007308F600722B770884008313000896
:1006C200F3007308F4000130F3007308F7077408AD
:1006D200F30076088400730880000130F300730889
:1006E200F6070130F1020030031CF203F202710A34
:1006F200031D7F2B720A031D7F2B802B5D2B0800AD
:1007020083120313B6000730B2003208F4000D3032
:100712000A128A11DC220A128A1183120313360882
:10072200B2007B0884003208831380007B08B20089
:100732003208A000A101A10A7B08B3003308A2007D
:100742003830B4003408A3000C300A128A115B2638
:100752000A128A1183120313B5003508B70037084D
:10076200031DB42BB52BBC2B1030380639040319EA
:10077200BB2BBC2BC02B0230B2003208B7003708AB
:1007820008000A128A118C220A128A118D30FB008B
:100792007B08F4002A300A128A11DC220A128A111A
:1007A2003E30FB007B08F4002B300A128A11DC2257
:1007B2000A128A111E30FB007B08F4002D300A1247
:1007C2008A11DC220A128A11F4012C300A128A11CF
:1007D200DC220A128A114030FB007B08F40015303B
:1007E2000A128A11DC220A128A113D30FB007B08B0
:1007F200F40011300A128A11DC220A128A110A123A
:100802008A1181220A128A110800F501F601700884
:10081200710403190D2C0E2C452CF701F70A1C2C20
:1008220001300310F00DF10DFF3E031D122C0130BB
:10083200F4007408F707F11F1F2C202C112C013033
:100842000310F50DF60DFF3E031D212C71087302F6
:10085200031D2D2C70087202031C302C312C382CF5
:100862007008F2027108031CF303F30275140130DD
:100872000310F10CF00CFF3E031D392C0130F7027E
:10088200031D442C452C202C7608F1007508F0003D
:10089200080083120313BC00B701F4010D300A12E1
:1008A2008A11DC220A128A11933083120313B200D6
:1008B2003C0884003208831380002030B2003C0AD6
:1008C2008400320880000830B2003208F700083095
:1008D2000A128A11C8220A128A11831203133C08CF
:1008E200B2003208A0000230B3003308A1003C0875
:1008F200B4003408A2003830B5003508A3000C302B
:100902000A128A115B260A128A1183120313B60095
:100912003608BA003A08031D8F2C902CB22CBB016A
:100922003B083C07B2003208840083130008B3007E
:100932003308B7060130B2003208BB0704303B026D
:10094200031CA42CA52C912C3C08043E8400000816
:1009520037060319AD2CAE2CB22C0230B20032088D
:10096200BA003A08080083120313B0002130F800DD
:100972007808AC00612D253031060319C12CC22C38
:10098200CE2C3108F80030088400780883138000E8
:100992000130F8007808B007612D0130A007FF3060
:1009A200200784000A128A110D200A128A11B1004E
:1009B200F800F9017908003A0319E02C612D780852
:1009C200003A0319732D783A0319E82C612D2C088B
:1009D200840083130008AD00840A0008AE000230D0
:1009E200F8007808AC07B101B10A3108F8007807BD
:1009F200013E84000A128A110D200A128A11F9009E
:100A02000A128A110D200A128A11FA007A082E029D
:100A1200031D0D2D79082D020318102D112D122DF5
:100A22001C2D0130F8007808B10704303106031D8F
:100A32001B2D1C2DF62C3108F8007808AF00582D1C
:100A42002F08F8007807013E84000A128A110D204F
:100A52000A128A11F0000A128A110D200A128A1152
:100A6200F1002E08F3002D08F2000A128A11062462
:100A72000A128A1170080F39F900790883120313D8
:100A8200AB002B08673E84000A128A110D200A125D
:100A92008A11F8007808B1003108F80030088400A3
:100AA2007808831380000130F8007808B007FF301F
:100AB200F8007808AF072F0A031D602D612D212D44
:100AC2000130A007FF30200784000A128A110D208E
:100AD2000A128A11F8007808B1003108031D722D3C
:100AE200732DBC2C300884008313800108000A1285
:100AF2008A1161220A128A110A128A11B5220A1275
:100B02008A110A128A11F3220A128A110A128A110E
:100B1200C2230A128A115130F1008030F2000A1207
:100B22008A1128230A128A11D33083120313BD00BB
:100B32003D08FB0026300A128A1181230A128A110B
:100B420083120313BE003E0883160313D200520819
:100B5200031DAC2DAD2DD82D373083120313BD00EC
:100B62003D08A00083160313530883120313BE002B
:100B7200BF013E08A1003F08A200831603135408D8
:100B820083120313C000C1014008A3004108A4005E
:100B9200A0300A128A11B4240A128A11A030F1007C
:100BA2000030F2000A128A1128230A128A11D33065
:100BB2000A128A114A240A128A1183120313BD00EF
:100BC2003D0883160313D200D33083120313BD00F2
:100BD2003D08F0000530F1000030F200E3300A1267
:100BE2008A1153230A128A11831603135208031D12
:100BF200FB2DFC2D482E093083120313BD003D0846
:100C0200A00083160313630883120313BE00BF01FF
:100C12003E08A1003F08A200831603136408831252
:100C22000313C000C1014008A3004108A4008316B9
:100C32000313650883120313C200C3014208A5000F
:100C42004308A60083160313660883120313C40025
:100C5200C5014408A7004508A800831603136708C6
:100C620083120313C600C7014608A9004708AA0059
:100C7200A0300A128A11B4240A128A11A030F1009B
:100C82000030F2000A128A1128230A128A111A303D
:100C920083120313BF005E30BE006D30BD00BD0B7A
:100CA200502EBE0B502EBF0B502E572E8C2D0A12DB
:100CB2008A11002883120313AE000230A400240814
:100CC200AB00AD01AA01772E1230A4002408AD00BA
:100CD2001030A4002408AA00872E7730A40024082C
:100CE200AD003030A4002408AA00872E2E08A400EC
:100CF200A5012508003A03197F2E872E24080C3AF5
:100D020003196E2E023A0319652E872E2D0880389C
:100D1200A4002408F40002300A128A11DC220A120A
:100D22008A11803083120313A4002408F7000430D0
:100D32000A128A11C8220A128A11803083120313FE
:100D4200A4002408F7000A300A128A11A3220A1208
:100D52008A11F40101300A128A11DC220A128A1164
:100D620083120313AF01B001CE2E2F082007A40077
:100D72002408840083130008A5002508F400093024
:100D82000A128A11DC220A128A1101308312031319
:100D9200AF070318B00A0030B0072108A400A5016C
:100DA20025083002031DD72E24082F02031CDA2E39
:100DB200DB2EB62E2E08A4002408F40001300A12FD
:100DC2008A11DC220A128A110C30831203132E06B6
:100DD200031DEC2EED2EF72E8030A4002408F70020
:100DE2000D300A128A11A3220A128A11FF308312CD
:100DF2000313AF00FF30B00004300A128A110D2332
:100E02000A128A1183120313A4002408B1000130CC
:100E1200AF020030031CB003B0022F0830040319E4
:100E2200132F142F1E2F3118172F182F1E2F310892
:100E32002A0503191D2F1E2FFD2E8030A400240821
:100E4200F7000D300A128A11C8220A128A1183127F
:100E520003132F08300403192F2F302FE72F0630EA
:100E62000A128A110D230A128A111B39031D3A2F05
:100E72003B2FE12F83120313AB012D083105A40090
:100E8200241C442F452F472FAB01AB0A0C302E06F2
:100E9200031D4C2F4D2FE72F0A300A128A110D2302
:100EA2000A128A1183120313A4002408B1000C3021
:100EB2000A128A110D230A128A11073983120313A7
:100EC200A4002408AC002C080319682F692F8E2F68
:100ED2003108A400A5010310A40DA50D0310A40D53
:100EE200A50D0310A40DA50D2C082407A6000030A3
:100EF200031801302507A7002608F83EA800270896
:100F02000318013EFF3EA90023088400280883132A
:100F12008000840A29088000A22F3108A400A501BC
:100F22000310A40DA50D0310A40DA50D0310A40D0F
:100F3200A50D23088400240883138000840A250851
:100F420080003108031DA62FA72FA92FB101B10AD6
:100F520011303102031CAE2FAF2FB32F1030A4007B
:100F62002408B100AF01B001CD2F09300A128A1155
:100F72000D230A128A1183120313A4002F082207D9
:100F8200A500250884002408831380000130AF07E0
:100F92000318B00A0030B0073108A400A5012508E3
:100FA2003002031DD62F24082F02031CD92FDA2F5B
:100FB200B62F2F082207A400240884008001E72FFF
:100FC200023083120313A4002408AB002B0808008C
:100FD200FC018313D2308400E8300A128A1166229F
:100FE2000A128A11831790308400C2300A128A11C1
:0E0FF20066220A128A1183010A128A11782DD2
:02400E003A3F37
:00000001FF
