:020000040000FA
:100000000A128A11ED2FFF1B0D2883137F18831707
:100010000008840A0319FF0A080000308A00040857
:10002000840A82070034013400340A340034643412
:100030000034E8340334103427342D342D342D3477
:100040002D342D342D3428345E342E345E3429344E
:100050002D342D342D342D342D34003443344F348D
:1000600055344E34543445345234313420343A34D7
:0A00700020340034253464340034D9
:1006F80001340A128A1156250A128A118316031325
:1007080011141118882B892B852B08000A128A11BD
:1007180056250A128A118316031311151119952BE0
:10072800962B922B0800831603138715071628307B
:1007380083120313940083160313910194170D3049
:1007480093000800FB007B080319AB2BAC2BB12BE3
:1007580083120313B901B90AB42B83120313B90125
:100768000A128A11A6240A128A110800F3000A1232
:100778008A1156250A128A118312031394137308D7
:1007880093008C118C1DC92BCA2BC62B83160313FF
:10079800111FCF2BD02BD32B831203138C110800DE
:1007A800EB2B2308FF00220884000A128A11032079
:1007B8000A128A110A128A117A240A128A1101303D
:1007C80083120313A2070318A30A0030A307831296
:1007D80003132308FF00220884000A128A11032049
:1007E8000A128A11003A031DFA2BFB2BD52B08009D
:1007F80083120313A80028030319032C042C092CC3
:10080800C030A9000030AA000D2C8030A9000030AB
:10081800AA0024082907FF3EA7002708AB002B08D9
:100828000A128A114F240A128A1183120313250807
:10083800A2002608A3000A128A11D4230A128A11D8
:100848000800F7000A128A117D230A128A11770814
:100858000A128A11BA230A128A11F801432C78085D
:100868007407F60076088400831300080A128A11B8
:10087800BA230A128A110130F6007608F8077508BB
:100888007802031C482C492C332C0A128A118A231B
:100898000A128A11080083120313A100B6010A1272
:1008A8008A11A6240A128A1183120313B7010A12A5
:1008B8008A11A6240A128A118312031321080A1224
:1008C8008A1118250A128A11831203132108A0001D
:1008D80003300310A00DFF3E031D6D2C0310200DE7
:1008E8000A128A1118250A128A11080083120313A2
:1008F800A100B601B60A0A128A11A6240A128A11A0
:1009080083120313B7010A128A11A6240A128A1144
:100918008312031321080A128A1118250A128A1150
:10092800831203132108A00003300310A00DFF3E1B
:10093800031D992C0310200D0A128A1118250A127A
:100948008A110800FA01031083120313BE0C7A08F7
:10095800363E8400831300080319B32CB42CB52C3D
:10096800BE170130F9007908FA0708307A02031C2B
:10097800BE2CBF2CA72C3F03031DC32CC42CD12C89
:100988003E30F9007908F400F501F50A4E300A12F4
:100998008A1125240A128A11DD2C3E30F9007908C3
:1009A800F400F501F50A42300A128A1125240A12C8
:1009B8008A110800780879040319E32CE42C132D14
:1009C800FD01FD0AF22C01300310F80DF90DFF3E70
:1009D800031DE82C0130FC007C08FD07F91FF52CED
:1009E800F62CE72C79087B02031DFC2C78087A0288
:1009F800031CFF2C002D062D7808FA027908031C29
:100A0800FB03FB0201300310F90CF80CFF3E031D39
:100A1800072D0130FD02031D122D132DF62C7B0826
:100A2800F9007A08F8000800FD00FD1F1C2D1D2D97
:100A3800222D83120313BD01BD0A252D8312031332
:100A4800BD017D1F282D292D2C2DBC01BC0A2D2D63
:100A5800BC01FD1E302D312D342DBB01BB0A352DB7
:100A6800BB017D1E382D392D3C2DBA01BA0A3D2D0A
:100A7800BA01B801B80A0A128A11A6240A128A1100
:100A880083120313B8010A128A11A6240A128A11C2
:100A98000630FC003030FB00FB0B502DFC0B502DBA
:100AA800000008008316031311080139F000140C24
:100AB800F100710C01397004031D632D642D562D4E
:100AC800110C0139F000140CF100710C013970049B
:100AD800031D6F2D702D642D110CF000700C013961
:100AE800F100140CF200720C01397104031D7D2D04
:100AF8007E2D702D110CF000F00C700C0139F100F6
:100B0800140CF200720C01397104031D8C2D8D2D0B
:100B18007E2D110E0139F000140CF100710C013911
:100B28007004031D982D992D8D2D0800F501F601EF
:100B3800700871040319A12DA22DD92DF701F70A08
:100B4800B02D01300310F00DF10DFF3E031DA62D51
:100B58000130F4007408F707F11FB32DB42DA52D4B
:100B680001300310F50DF60DFF3E031DB52D71087C
:100B78007302031DC12D70087202031CC42DC52DFC
:100B8800CC2D7008F2027108031CF303F3027514EC
:100B980001300310F10CF00CFF3E031DCD2D013088
:100BA800F702031DD82DD92DB42D7608F10075084C
:100BB800F00008000A128A1197230A128A111A30C3
:100BC80083120313A300F730A200A20BE92DA30B95
:100BD800E92DEE2D83120313A4012408363E840068
:100BE800831380010130A2002208A40708302402E0
:100BF800031CFF2D002EF12D0A128A11A6240A12B9
:100C08008A1183120313B6010A128A11A6240A1242
:100C18008A1183120313B7010A128A11A6240A1231
:100C28008A1130300A128A1118250A128A111A30CC
:100C380083120313A300F730A200A20B212EA30BEB
:100C4800212E262E30300A128A1118250A128A11EE
:100C5800063083120313A3002F30A200A20B322EFA
:100C6800A30B322E372E30300A128A1118250A1299
:100C78008A11063083120313A3002F30A200A20B9F
:100C8800432EA30B432E482E28300A128A1118250A
:100C98000A128A11063083120313A3002F30A20010
:100CA800A20B542EA30B542E592E28300A128A1147
:100CB8004F240A128A1101300A128A114F240A128B
:100CC8008A110E300A128A114F240A128A1108005A
:100CD80083120313B401B501831603130814831296
:100CE8000313BF01BF0A0A128A11DE250A128A11EC
:100CF80001300A128A11A6230A128A1183120313D9
:100D0800BF01BF0AA401A40A1C30A5008030A600B8
:100D180001300A128A11FC230A128A112830831220
:100D28000313AD002D08A0000030A100A2002F3051
:100D38000A128A1105270A128A110C30831203132A
:100D4800AD002D08A4002F30A5000030A60001300A
:100D58000A128A11FC230A128A1183120313A401AE
:100D6800A40A0B30A5008030A60002300A128A11AE
:100D7800FC230A128A11831203130818C42EC52EE5
:100D8800F72E343083120313AE00F130AD00AD0BF3
:100D9800CB2EAE0BCB2E013083120313B4070318EE
:100DA800B50A0030B507BF01BF0A2830AD002D08CD
:100DB800A0003508A2003408A1002F300A128A11B9
:100DC80005270A128A110C3083120313AD002D086F
:100DD800A4002F30A5000030A60001300A128A11A5
:100DE800FC230A128A11823083120313AE00DD300D
:100DF800AD00AD0BFD2EAE0BFD2EBF2E0A128A11D3
:100E0800002883120313AB002130A3002308A60097
:100E1800D62F25302C060319122F132F1F2F2C081D
:100E2800A3002B0884002308831380000130A3004B
:100E38002308AB07D62FA7010130A007FF302007F2
:100E480084000A128A110D200A128A11AC00A3002C
:100E5800A4012408003A0319322FD62F2308003A98
:100E68000319E82F643A03193D2F0D3A03193D2F52
:100E7800D62F2608840083130008A900840A0008D6
:100E8800AA000230A3002308A607AA1F4C2F4D2F43
:100E9800562F0330A3002308A704A909AA09A90A01
:100EA8000319AA0AAC01AC0A2C08A3002307013EC7
:100EB80084000A128A110D200A128A11A4000A124B
:100EC8008A110D200A128A11A50025082A02031D7D
:100ED8006F2F240829020318722F732F742F7E2F67
:100EE8000130A3002308AC0705302C06031D7D2F15
:100EF8007E2F582F270803390319832F842F8F2F0C
:100F08002D30A3002B0884002308831380000130B0
:100F1800A3002308AB072C08A3002308A800CD2FA3
:100F28000A30F8000030F9002808A3002307013E22
:100F380084000A128A110D200A128A11F0000A127E
:100F48008A110D200A128A11F1002A08F3002908D3
:100F5800F2000A128A119A250A128A117108FB00F6
:100F68007008FA000A128A11DE240A128A11780817
:100F7800303E83120313A4002408AC002C08A300FD
:100F88002B0884002308831380000130A300230862
:100F9800AB07FF30A3002308A807280A031DD52F95
:100FA800D62F942F0130A007FF30200784000A12A3
:100FB8008A110D200A128A11A3002308AC002C08FC
:100FC800031DE72FE82F0D2F2B08840083138001C2
:100FD80008000A128A117C230A128A11BF00B6017E
:100FE800B701B801B901BA01BB01BC01BD01BE011D
:080FF80083010A128A116C2E1C
:02400E003A3F37
:00000001FF
