:020000040000FA
:060000000A128A11FC2F18
:100D2600F301F401F5010730F00070088316031390
:100D36009F0485013F308312031385000230F200C1
:100D46004530F100A930F000F00BA72EF10BA72ECD
:100D5600F20BA72EAE2E831203130518B32EB42E54
:100D6600142F8230F100DD30F000F00BB82EF10BBD
:100D7600B82EBD2E7308031DC12EC22E152FF601E7
:100D860037308312031385000230F2004530F1003C
:100D9600A930F000F00BCD2EF10BCD2EF20BCD2E9F
:100DA600D42E2F308312031385000230F200453013
:100DB600F100A930F000F00BDE2EF10BDE2EF20B67
:100DC600DE2EE52E1F308312031385000230F2005B
:100DD6004530F100A930F000F00BEF2EF10BEF2EAD
:100DE600F20BEF2EF62E3F308312031385000230EE
:100DF600F2004530F100A930F000F00B002FF10BA6
:100E0600002FF20B002F072F0130F0007008F607B5
:100E16000A307602031C102F112FC32EF301F30A9A
:100E2600152FF3018312031385181A2F1B2F7B2FFF
:100E36008230F100DD30F000F00B1F2FF10B1F2F79
:100E4600242F7408031D282F292F7C2FF601073025
:100E56008312031385000230F2004530F100A930F9
:100E6600F000F00B342FF10B342FF20B342F3B2F05
:100E76003F308312031385000230F2004530F10043
:100E8600A930F000F00B452FF10B452FF20B452F43
:100E96004C2F07308312031385000230F2004530D1
:100EA600F100A930F000F00B562FF10B562FF20B84
:100EB600562F5D2F3F308312031385000230F20058
:100EC6004530F100A930F000F00B672FF10B672FCA
:100ED600F20B672F6E2F0130F0007008F6070A300C
:100EE6007602031C772F782F2A2FF401F40A7C2F21
:100EF600F401831203130519812F822FF72F8230F5
:100F0600F100DD30F000F00B862FF10B862F8B2FD2
:100F16007508031D8F2F902FAE2EF60137308312E2
:100F2600031385000330F2008A30F1005530F000DB
:100F3600F00B9B2FF10B9B2FF20B9B2FA22F3F3019
:100F46008312031385000330F2008A30F100553016
:100F5600F000F00BAC2FF10BAC2FF20BAC2FB32F34
:100F66000F308312031385000330F2008A30F1003C
:100F76005530F000F00BBD2FF10BBD2FF20BBD2F3E
:100F8600C42F3F308312031385000330F2008A30EA
:100F9600F1005530F000F00BCE2FF10BCE2FF20BF7
:100FA600CE2FD52F1F308312031385000330F20096
:100FB6008A30F1005530F000F00BDF2FF10BDF2FF8
:100FC600F20BDF2FE62F3F3083120313850001302B
:100FD600F0007008F6070A307602031CF32FF42F90
:100FE600912FF501F50AAE2EF501AE2E0A128A11E1
:0A0FF600002883010A128A11932ECD
:02400E003A3F37
:00000001FF
