:020000040000FA
:060000000A128A11FC2F18
:100F780083160313011581100110811281110800D5
:100F880064308312031381000B1DCB2FCC2FC82F85
:100F98000B110800DA2F0A128A11C4270A128A11C3
:100FA8000130F0020030031CF103F10270087104F3
:100FB800031DDF2FE02FCF2F08000A128A11BC274C
:100FC8000A128A11831603138701831203138701F8
:100FD8008312031387090A30F0000030F1000A1267
:100FE8008A11CE270A128A11EC2F0A128A110028B8
:080FF80083010A128A11E12FA6
:02400E003A3F37
:00000001FF
