:020000040000FA
:060000000A128A11DE2F36
:1009E800483445344C344C344F34831603130810C0
:1009F800881083120313881408140800F100831266
:100A0800031306107108F0398600861486104230E8
:100A1800F000F00B0D2D00000800831203130810DE
:100A28008316031388108312031388100330F00011
:100A3800F00B1C2D8312031308140330F000F00B85
:100A4800232D8312031308100800831203130810C0
:100A58008316031388108312031388140330F000DD
:100A6800F00B342D8312031308140330F000F00B3D
:100A78003B2D8312031308100800831603138810F4
:100A880083120313881408140630F000F00B4A2D63
:100A980000008312031388100630F000F00B522D6B
:100AA800000083120313081008008316031388102C
:100AB80083120313881008100630F000F00B622D23
:100AC80000008312031308140630F000F00B6A2D9F
:100AD80000008312031388140800F2008312031322
:100AE8000614720801388600861486107208F00011
:100AF80003300310F00DFF3E031D7D2D0310700D14
:100B080001388600861486100730F1007D30F00029
:100B1800F00B8C2DF10B8C2D0800F20183160313BA
:100B28008814831203138814992D9A2D00008312B8
:100B3800031308149F2DA02D0000B32D0130F100E0
:100B48007108F207FB307202031CAB2DAC2DB32DDC
:100B58000A128A1159250A128A110130BB2D8312F3
:100B680003138818B82DB92DA22D081000300800DD
:100B7800F200831603138810831203130810F3017D
:100B88007208F00007300310F00CFF3E031DC72D5C
:100B980070080139F100F10D08087106FD39710678
:100BA80088000310F20D08140630F000F00BDA2D5F
:100BB80000008312031308100130F0007008F307D7
:100BC80008307302031CE92DEA2DC42D0800F20039
:100BD8008312031306107208F039860086148610F3
:100BE8007208F00003300310F00DFF3E031DF72DCF
:100BF8000310700D860086148610033072020318E5
:100C0800062E072E112E0D30F100FB30F000F00BF0
:100C18000B2EF10B0B2E102E192E0730F1007D3004
:100C2800F000F00B152EF10B152E0800F200F30161
:100C3800831603138814F401831208100330F1009B
:100C4800F10B242E8312031308140330F100F10B67
:100C58002B2E0310F30D83120313881C342E352E0C
:100C6800392E0130F1007108F3070130F1007108E5
:100C7800F40708307402031C422E432E202E7208FB
:100C8800031D472E482E4E2E0A128A1111250A12CC
:100C98008A11532E0A128A1129250A128A117308F9
:100CA800080083160313860130300A128A110225C0
:100CB8000A128A112130F4007630F300F30B622E09
:100CC800F40B622E000030300A128A1102250A1233
:100CD8008A110730F4007D30F300F30B712EF40B0A
:100CE800712E30300A128A1102250A128A11283010
:100CF8000A128A1102250A128A1128300A128A1148
:100D0800EB250A128A1101300A128A11EB250A1200
:100D18008A110E300A128A11EB250A128A1108006C
:100D280020308400831203132B0883138000840A65
:100D38002C088000840A2D088000840A2E08800070
:100D4800840A2F0880000A128A1155260A128A116D
:100D58000A128A11F9240A128A11F4010530FB00DB
:100D68007B08F5002030FC007C08F600A0300A1251
:100D78008A11F9260A128A111A30FD005E30FC0029
:100D88006E30FB00FB0BC62EFC0BC62EFD0BC62ED1
:100D98000000F5010530FB007B08F6002530FC005B
:100DA8007C08F700A0300A128A115F270A128A11FC
:100DB80083120313AA012A08253E8400831300081E
:100DC8000A128A1171250A128A110130FB007B0868
:100DD80083120313AA0705302A02031CF42EF52EEA
:100DE800DF2EF52E0A128A110028F9000A128A113C
:100DF80041250A128A1179080A128A11BC250A1299
:100E08008A110A128A1191250A128A11003A0319C5
:100E18000E2F0F2F142F0A128A1159250A128A1120
:100E280074080A128A11BC250A128A110A128A1138
:100E380091250A128A11003A0319232F242F292FEA
:100E48000A128A1159250A128A11FA014A2F7A08B8
:100E58007607F70077088400831300080A128A11BE
:100E6800BC250A128A110A128A1191250A128A11BE
:100E7800003A0319402F412F462F0A128A1159258B
:100E88000A128A110130F7007708FA0775087A0202
:100E9800031C4F2F502F2B2F0A128A1159250A1283
:100EA8008A110D30F800FB30F700F70B592FF80BBB
:100EB800592F5E2F0800FA000A128A1141250A12DA
:100EC8008A117A080A128A11BC250A128A110A1292
:100ED8008A1191250A128A11003A0319742F752F65
:100EE8007A2F0A128A1159250A128A1175080A12CC
:100EF8008A11BC250A128A110A128A1191250A122E
:100F08008A11003A0319892F8A2F8F2F0A128A1102
:100F180059250A128A110A128A1141250A128A11C0
:100F28007A0801380A128A11BC250A128A110A1293
:100F38008A1191250A128A11003A0319A42FA52FA4
:100F4800AA2F0A128A1159250A128A117603031D3B
:100F5800AE2FAF2FBC2F01300A128A111A260A129F
:100F68008A11F80077088400780883138000CF2F4F
:100F780000300A128A111A260A128A11F800770814
:100F880084007808831380000130F8007808F70798
:100F98000130F602AA2F0A128A1159250A128A115B
:100FA8000D30F900FB30F800F80BD82FF90BD82FCB
:100FB800DD2F08000A128A11F4240A128A11AB00E4
:100FC8000A128A11F5240A128A11AC000A128A112F
:100FD800F6240A128A11AD000A128A11F7240A129D
:100FE8008A11AE000A128A11F8240A128A11AF0077
:080FF80083010A128A11942EF4
:02400E003A3F37
:00000001FF
