:020000040000FA
:060000000A128A110C280F
:10000800FE00030EF0000A08F1000A128A15F22C0D
:100018000A128A110F28831603130A128A11EB2772
:100028000A128A11C1000A128A11EC270A128A11CF
:10003800C20083010A128A15C92C831203134308CC
:100048008039C8004808CD004308C8004807C900DF
:100058004908D300C21F31283228332853145308C3
:100068000319372838284728530A031D3C283D28F8
:1000780045280030C3000030C2000030C100003005
:10008800C000C2174F280030C3000030C200003043
:10009800C1000030C00047088039C8004808CD06B4
:1000A8004708C8004807C9004908D200C61F5D288C
:1000B8005E285F285214520803196328642873289D
:1000C800520A031D6828692871280030C7000030CB
:1000D800C6000030C5000030C400C6177B280030B9
:1000E800C7000030C6000030C5000030C400520808
:1000F80003197F28802885285308031D842885280C
:100108008E280030C3000030C2000030C10000302B
:10011800C000812B4008C8004808F20046080A12AF
:100128008A15A2240A128A11730883120313D900AC
:100138007208D8005808C800C901CA01CB014B0889
:10014800D1004A08D0004908CF004808CE00590815
:10015800C800C901CA01CB014B08D7004A08D6001C
:100168004908D5004808D4004108C8004808F200EA
:1001780045080A128A15A2240A128A1173088312E2
:100188000313D9007208D8005808C800C901CA0169
:10019800CB014808CE07490803110318013E03198B
:1001A800D628CF074A0803110318013E0319DD2892
:1001B800D0074B0803110318013E0319E428D1079F
:1001C8005908C800C901CA01CB014808D407490821
:1001D80003110318013E0319F228D5074A08031131
:1001E8000318013E0319F928D6074B080311031811
:1001F800013E03190029D7074208C8004808F20041
:1002080044080A128A15A2240A128A117308831252
:100218000313D9007208D8005808C800C901CA01D8
:10022800CB014808CE07490803110318013E0319FA
:100238001E29CF074A0803110318013E031925296F
:10024800D0074B0803110318013E03192C29D107C5
:100258005908C800C901CA01CB014808D407490890
:1002680003110318013E03193A29D5074A08031157
:100278000318013E03194129D6074B080311031837
:10028800013E03194829D7070830C8000310CE0DCE
:10029800CF0DD00DD10DC80B4A294108C800480818
:1002A800F20044080A128A15A2240A128A11730855
:1002B80083120313D9007208D8005808C8005908D7
:1002C800C900CA01CB014808CE0749080311031821
:1002D800013E03197029CF074A0803110318013E8C
:1002E80003197729D0074B0803110318013E031996
:1002F8007E29D1074008C8004808F20045080A12BC
:100308008A15A2240A128A11730883120313D900CA
:100318007208D8005808C8005908C900CA01CB019A
:100328004808CE07490803110318013E03199D29FF
:10033800CF074A0803110318013E0319A429D0075F
:100348004B0803110318013E0319AB29D1070830E4
:10035800C8000310CE0DCF0DD00DD10DC80BAD299F
:100368004008C8004808F20044080A128A15A22466
:100378000A128A11730883120313D9007208D8006D
:100388005808C8005908C900CA01CB014808CE0757
:10039800490803110318013E0319D329CF074A0856
:1003A80003110318013E0319DA29D0074B0803117A
:1003B8000318013E0319E129D1074108C80048087C
:1003C800F20046080A128A15A2240A128A11730832
:1003D80083120313D9007208D8005808C8005908B6
:1003E800C900CA01CB014808D407490803110318FA
:1003F800013E0319002AD5074A0803110318013ED4
:100408000319072AD6074B0803110318013E0319DD
:100418000E2AD7074208C8004808F20045080A1201
:100428008A15A2240A128A11730883120313D900A9
:100438007208D8005808C8005908C900CA01CB0179
:100448004808D407490803110318013E03192D2A47
:10045800D5074A0803110318013E0319342AD607A1
:100468004B0803110318013E03193B2AD70742081A
:10047800C8004808F20046080A128A15A2240A127F
:100488008A11730883120313D9007208D800580818
:10049800C8005908C900CA01CB0108300310C80DAB
:1004A800C90DCA0DCB0DFF3E031D522A4808D407BB
:1004B800490803110318013E0319632AD5074A089E
:1004C80003110318013E03196A2AD6074B080311C2
:1004D8000318013E0319712AD7074E08C8004F08B0
:1004E800C9005008CA005108CB0018300310CB0CC3
:1004F800CA0CC90CC80CFF3E031D7A2A4808D40749
:10050800490803110318013E03198B2AD5074A0825
:1005180003110318013E0319922AD6074B08031149
:100528000318013E0319992AD7070830C800031099
:10053800CE0DCF0DD00DD10DC80B9B2A53085207F5
:10054800C800C901C90D4808823ED80049080318E7
:10055800013EFF3ED900CD2A0130C8000310D40D5A
:10056800D50DD60DD70DC80BB22AD11FBC2ABD2A6E
:10057800BE2A54140130C8000310CE0DCF0DD00D83
:10058800D10DC80BC02AFF30D8070318D90AFF308D
:10059800D907D61FD02AD12AB02AD201D11FD52AED
:1005A800D62AF22AFF304E05C800FF304F05C90091
:1005B800FF305005CA007F305105CB004B084A0474
:1005C800490448040319E92AEA2AED2AD201D20A81
:1005D800F22A541CF02AF12AF22AEA2A52080319AC
:1005E800F62AF72A282B0130D407003003180130E7
:1005F800D507003003180130D60700300318013042
:10060800D707571C082B092B282B5408C800550856
:10061800C9005608CA005708CB000130CC004B0D62
:10062800CB0CCA0CC90CC80CCC0B132B4B08D7002D
:100638004A08D6004908D5004808D4000130D80730
:100648000318D90A0030D9075908803AFF008030CA
:100658007F02031D312BFF305802031C342B352B2E
:10066800402B7F3083120313D7008030D600003030
:10067800D5000030D400752B831203135908803A33
:10068800FF0080307F02031D4B2B013058020318F6
:100698004E2B4F2B5B2B003083120313D7000030F7
:1006A800D6000030D5000030D400CD01752B831260
:1006B80003135808C8004808D300FF30D405FF309A
:1006C800D5057F30D6050030D705531C6C2B6D2B14
:1006D8006E2BD6175308C8000310480CC9004908E8
:1006E800D7004D08C8004808D7045708C300560863
:1006F800C2005508C1005408C00008008312031343
:100708005D088039E2006208EA005D08E2006207DD
:10071800E3006308EC00DC1F922B932B942B6C14E2
:100728006C080319982B992BA92B6C0A031D9D2B78
:100738009E2BA62B0030DD000030DC000030DB00F3
:100748000030DA00DC17DD01B12B0030DD000030AD
:10075800DC000030DB000030DA0061088039E2009C
:100768006208EB006B086A060319BB2BBC2BBD2B78
:100778006A176108E2006207E3006308EB00E01F04
:10078800C62BC72BC82B6B146B080319CC2BCD2B8E
:10079800DD2B6B0A031DD12BD22BDA2B0030E100A5
:1007A8000030E0000030DF000030DE00E017E1013B
:1007B800E52B0030E1000030E0000030DF000030C1
:1007C800DE006C086B020318EA2BEB2B2F2C6A1F38
:1007D800EE2BEF2BF32B8030E2006208EA066C0860
:1007E800E2006208ED006B08E2006208EC006D08A8
:1007F800E2006208EB005A08E2006208ED005E08B9
:10080800E2006208DA006D08E2006208DE005B08B8
:10081800E2006208ED005F08E2006208DB006D0894
:10082800E2006208DF005C08E2006208ED00600890
:10083800E2006208DC006D08E2006208E0005D0882
:10084800E2006208ED006108E2006208DD006D0860
:10085800E2006208E100ED016B08E200E3016308D1
:10086800E5006C086202E400031CE5036508803AB1
:10087800FF0080307F02031D432C1A306402031CE2
:10088800462C472C842C831203135D085C045B04FC
:100898005A04031D502C522C0130532C0030E20016
:1008A8006208ED000030DD000030DC000030DB00C5
:1008B8000030DA006B08E2006208EC008C2C6D1C3A
:1008C800662C672C702C6D08E2000310620C01384E
:1008D800E3006308ED00722C0310ED0C5A1C752C14
:1008E800762C772CED170130E2005D0DDD0CDC0C69
:1008F800DB0CDA0CE20B792C0130E2006208EC0721
:10090800831203136B086C02031C8B2C8C2C632C36
:100918006A1B8F2C902CDB2C6C08031D942C952CB7
:100928009E2C0030DD000030DC000030DB000030A1
:10093800DA00092E5E08DA075F0803110318013E82
:100948000319A72CDB07600803110318013E0319DC
:10095800AE2CDC07610803110318013E0319B52CFE
:10096800DD075D1CB82CB92C8F2D6D1CBC2CBD2C43
:10097800C62C6D08E2000310620C0138E30063081E
:10098800ED00C82C0310ED0C5A1CCB2CCC2CCD2C14
:10099800ED170130E2005D0DDD0CDC0CDB0CDA0C30
:1009A800E20BCF2C0130E2006208EC078F2D5D08C6
:1009B800803AFF006108803A7F02031DED2C600831
:1009C8005C02031DED2C5F085B02031DED2C5E0825
:1009D8005A020318F02CF12C492DFF30E200FF30A9
:1009E800E300FF30E400FF30E5005E08E6005F0842
:1009F800E7006008E8006108E9005A08E6025B08B9
:100A0800031C5B0F082D092DE7025C08031C5C0F13
:100A18000E2D0F2DE8025D08031C5D0F142D152DFA
:100A2800E9026608E20767080318670F1C2D1D2DE9
:100A3800E30768080318680F222D232DE4076908C7
:100A48000318690AE5076508DD006408DC00630827
:100A5800DB006208DA008030E2006208EA06ED098D
:100A6800ED0A6D08031D392D3A2D572D0130DA078F
:100A7800003003180130DB07003003180130DC07B1
:100A8800003003180130DD07572D5E08DA025F08D1
:100A9800031C5F0FDB026008031C600FDC026108A7
:100AA800031C610FDD025D085C045B045A04031D2E
:100AB8005E2D5F2D8B2D6D08031D632D642D8B2DF1
:100AC8000030DD000030DC000030DB000030DA00F0
:100AD800092E0130E2000310DA0DDB0DDC0DDD0D0F
:100AE800E20B6F2DED1F792D7A2D7B2D5A146D1C7D
:100AF8007E2D7F2D822D0314ED0D842D0310ED0D19
:100B08006C080319882D892D8B2D0130EC02DC1F10
:100B18008E2D8F2D6D2DEB01ED1F932D942DA22D74
:100B28006D087F390319992D9A2D9D2DEB01EB0A3C
:100B3800A22D5A1CA02DA12DA22D9A2D6B080319A8
:100B4800A62DA72DDB2D0130DA0700300318013060
:100B5800DB07003003180130DC07003003180130D0
:100B6800DD075D1CB82DB92DDB2D5A08E2005B08A6
:100B7800E3005C08E4005D08E5000130E600650D6F
:100B8800E50CE40CE30CE20CE60BC32D6508DD0074
:100B98006408DC006308DB006208DA006C0A0319E9
:100BA800D62DD72DDB2D0130E2006208EC076C0A48
:100BB8000319DF2DE02DE52D6C08031DE42DE52D2F
:100BC800F32D0030DD000030DC000030DB000030A9
:100BD800DA006C08031DF12DF22DF32DEA016C1CCF
:100BE800F62DF72DF92DDC17FD2D7F30E200620878
:100BF800DC056C08E2000310620CE3006308DD000A
:100C0800EA1F072E082E092EDD170800831203138A
:100C18002D088039AE002E08B7002D08AE002E072B
:100C2800AF002F08BE00AC1F1A2E1B2E1C2E3E1420
:100C38003E080319202E212E312E3E0A031D252E93
:100C4800262E2E2E0030AD000030AC000030AB0058
:100C58000030AA00AC17AD01392E0030AD000030CD
:100C6800AC000030AB000030AA0029088039AE0083
:100C78002E08B7062908AE002E07AF002F08BF00C0
:100C8800A81F472E482E492E3F143F0803194D2E02
:100C98004E2E5E2E3F0A031D522E532E5B2E003021
:100CA800A9000030A8000030A7000030A600A8174F
:100CB800A901662E0030A9000030A8000030A70066
:100CC8000030A6002908280427042604031D6D2ED9
:100CD8006E2E872E0030AD000030AC000030AB0027
:100CE8000030AA008030AC047F30AD043708AE0075
:100CF8002E08AD042D08A9002C08A8002B08A70071
:100D08002A08A600E62F3E08031D8B2E8C2E952E52
:100D18000030A9000030A8000030A7000030A6006D
:100D2800E62F3E08AE00AF012F08B1003F082E02A3
:100D3800B000031CB10330087F3EB8003108031827
:100D4800013E003EB9002D08B6002C08B5002B085E
:100D5800B4002A08B3000030AD000030AC00003009
:100D6800AB000030AA000030BD000030BC000030ED
:100D7800BB000030BA00BF010B2F3F080319C52E76
:100D8800C62EE62E0130AE000310B30DB40DB50D1E
:100D9800B60DAE0BC82E0130AE000310AA0DAB0D78
:100DA800AC0DAD0DAE0BD12EBD1FDB2EDC2EDD2E16
:100DB8002A140130AE000310BA0DBB0DBC0DBD0DD9
:100DC800AE0BDF2E29083602031DF42E2808350243
:100DD800031DF42E27083402031DF42E26083302BF
:100DE800031CF72EF82E072F3D172608B3022708F5
:100DF800031C270FB4022808031C280FB502290872
:100E0800031C290FB6020130AE002E08BF071A30A6
:100E18003F02031C102F112FC12E3608350434044D
:100E280033040319182F192F382F3A14382F01308B
:100E3800AE000310AA0DAB0DAC0DAD0DAE0B1D2F02
:100E4800BD1F272F282F292F2A140130AE00031089
:100E5800BA0DBB0DBC0DBD0DAE0B2B2FFF30B80767
:100E68000318B90AFF30B907AC1F3B2F3C2F1B2FC3
:100E7800BF01BD1F402F412F5D2FFF303A05AE0047
:100E8800FF303B05AF00FF303C05B0007F303D052B
:100E9800B100310830042F042E040319542F552FA4
:100EA800582FBF01BF0A5D2F2A1C5B2F5C2F5D2FB7
:100EB800552F3F080319612F622F932F0130AA077E
:100EC800003003180130AB07003003180130AC07BD
:100ED800003003180130AD072D1C732F742F932F8A
:100EE8002A08AE002B08AF002C08B0002D08B1006E
:100EF8000130B200310DB10CB00CAF0CAE0CB20B1E
:100F08007E2F3108AD003008AC002F08AB002E084A
:100F1800AA000130B8070318B90A0030B907390820
:100F2800803AFF0080307F02031D9C2FFF3038027B
:100F3800031C9F2FA02FAE2FFF3083120313B8007E
:100F48000030B9000030AD000030AC000030AB001C
:100F58000030AA00831203133908803AFF0080305A
:100F68007F02031DB92F013038020318BC2FBD2F93
:100F7800CA2F83120313B801B9010030AD00003045
:100F8800AC000030AB000030AA00B7018312031395
:100F98003808AE002E08BE003E1CD32FD42FD62F03
:100FA800AC17DA2F7F30AE002E08AC053E08AE0035
:100FB80003102E0CAF002F08AD003708AE002E0826
:100FC800AD047E2E08008312031310140800D434D5
:020FD8003034B3
:10194400FA00F601F7017208F400F5017408F800D2
:101954007508F9007A1CAF2CB02CB62C7808F60761
:101964000318F70A7908F70701300310F80DF90D89
:10197400FF3E031DB72C0310FA0C7A08031DC32C79
:10198400C42CAC2C7708F3007608F20008000A1285
:101994008A152A250A128A1500300A128A1509277F
:1019A4000A128A150A128A11E7270A128A150030C8
:1019B4000A128A1509270A128A150D308316031391
:1019C400B800AF30B700B530B600B60BE72CB70B94
:1019D400E72CB80BE72CEE2CD92C0A128A110C2810
:1019E400831203130C1CF72CF82C232D0310061C54
:1019F40003140318FE2C022D831203130614052D61
:101A04008312031306100618082D092D162D8316AC
:101A140003133E08831203138F00831603133D0838
:101A2400831203138E00222D83160313400883129E
:101A340003138F00831603133F08831203138E00CE
:101A44000C1071088A00700E8300FE0E7E0E0900D1
:101A540083160313061083120313061490109016B2
:101A640010168B170B17831603130C146A30BB0064
:101A74001830BC00D430F2003030F3003B0872025E
:101A8400B9003C08031C3C0A7302BA003B08F2008C
:101A94003C08F300F401F5010030F6000030F700D3
:101AA4000130F8000030F9007208F6027308031CD4
:101AB400730F5D2D5E2DF7027408031C740F632DE4
:101AC400642DF8027508031C750F692D6A2DF9023F
:101AD4000830FA00790DF90CF80CF70CF60CFA0B37
:101AE4006C2D7608FB007B08C0003B08003CF2002C
:101AF4007208BF003908F2003A08F300F401F50156
:101B04000030F6000030F7000130F8000030F90032
:101B14007208F6027308031C730F912D922DF702BD
:101B24007408031C740F972D982DF8027508031C74
:101B3400750F9D2D9E2DF9020830FA00790DF90CD0
:101B4400F80CF70CF60CFA0BA02D7608FB007B08BA
:101B5400BE003908003CF2007208BD004008831240
:101B640003138F00831603133F08831203138E009D
:101B74000800031083160313220D230DA400240868
:101B840083120313EF006F08031DC92DCA2DD52D31
:101B9400003083160313A3000030A2000030A1001C
:101BA4000030A0004C2E831603132008A400210843
:101BB400A5002208A6002308A7001F300310A70CC5
:101BC400A60CA50CA40CFF3E031DE02D2408A800C0
:101BD400280883120313EE0083160313A217FF30A1
:101BE400A005FF30A105FF30A2050030A305963003
:101BF40083120313EF02EF1F002E012E1F2E6F0816
:101C0400803A973E0318072E082E092ECA2D01305C
:101C1400031083160313A30CA20CA10CA00CFF3E0B
:101C2400031D0A2E0130A400240883120313EF07B6
:101C3400031D1D2E1E2E092E3A2E20306F02031C6A
:101C4400242E252E352ECA2D013083160313A4000D
:101C54000310A00DA10DA20DA30DA40B2A2E01307B
:101C640083120313EF026F08031D392E3A2E262E1A
:101C74006E0803193E2E3F2E4C2E83160313A00923
:101C8400A109A209A309A00A0319A10A0319A20A16
:101C94000319A30A080083120313A00020080319E0
:101CA400542E552E692EF51F582E592E692E720961
:101CB400A2007309A3007409A4007509A500A20A6F
:101CC4000319A30A0319A40A0319A50A712E750896
:101CD400A5007408A4007308A3007208A200750884
:101CE400740473047204031D782E792E822E00303E
:101CF400F5000030F4000030F3000030F200082F4B
:101D04009630F6007608A100942E0130F60076088D
:101D1400A10701300310A50CA40CA30CA20CFF3ED8
:101D2400031D8C2EFE302505031D992E9A2E872E19
:101D3400B62E0130F6007608A1070130A207003064
:101D440003180130A307003003180130A407003042
:101D540003180130A50701300310A50CA40CA30C33
:101D6400A20CFF3E031DAE2EFF302505031DBB2E26
:101D7400BC2E9B2EC82E0130A1020130F6000310A8
:101D8400A20DA30DA40DA50DF60BC12EA41BCB2EE5
:101D9400CC2ED22E023021020318D12ED22EBD2EEB
:101DA4002118D52ED62EDE2EFF30A205FF30A30536
:101DB4007F30A405FF30A5050310A10C2108F6000F
:101DC400F701F801F90118300310F60DF70DF80DBD
:101DD400F90DFF3E031DE62E7608A2047708A3043E
:101DE4007808A4047908A50420080319FA2EFB2E08
:101DF400002FF51FFE2EFF2E002FA5172508F50036
:101E04002408F4002308F3002208F20008008316D3
:101E14000313B5003508A900AA01AB01AC012C08D5
:101E2400F5002B08F4002A08F3002908F200013019
:101E34000A128A154D260A128A157508831203138D
:101E4400AD007408AC007308AB007208AA004330FC
:101E5400A9003430A8000030A7000030A6000A1200
:101E64008A110A260A128A15831203132908C70045
:101E74002808C6002708C5002608C4004430C3004B
:101E84001C30C2004030C1000030C0000A128A1168
:101E940021200A128A15831203134308E100420821
:101EA400E0004108DF004008DE004430DD001C3063
:101EB400DC004030DB000030DA000A128A11822391
:101EC4000A128A15831203135D0883160313A300F1
:101ED400831203135C0883160313A20083120313F3
:101EE4005B0883160313A100831203135A08831695
:101EF4000313A0000A128A15BB250A128A15831639
:101F040003132108B4002008B3003408BC003308CC
:101F1400BB00D430A9003030AA003B082902B90024
:101F24003C08031C3C0A2A02BA003B08A9003C08EE
:101F3400AA00AB01AC010030AD000030AE000130AE
:101F4400AF000030B0002908AD022A08031C2A0F94
:101F5400AC2FAD2FAE022B08031C2B0FB22FB32FC7
:101F6400AF022C08031C2C0FB82FB92FB002083075
:101F7400B100300DB00CAF0CAE0CAD0CB10BBB2FDF
:101F84002D08B2003208C0003B08003CA900290813
:101F9400BF003908A9003A08AA00AB01AC0100301F
:101FA400AD000030AE000130AF000030B0002908B1
:101FB400AD022A08031C2A0FE02FE12FAE022B08E2
:101FC400031C2B0FE62FE72FAF022C08031C2C0F4A
:101FD400EC2FED2FB0020830B100300DB00CAF0C77
:101FE400AE0CAD0CB10BEF2F2D08B2003208BE00C1
:0C1FF4003908003CA9002908BD000800C5
:02400E00323F3F
:00000001FF
