:020000040000FA
:100000000A128A11FC2F00308A000408840A820731
:080010000034203400340034F8
:100D360083120313930183160313141CA32EA42EEC
:100D46009E2E8312031313080800F0007008831206
:100D56000313930083160313141CB22EB32EAD2E69
:100D6600831203131308080083160313871107164B
:100D760087129413141383120313941314139416E3
:100D8600141294111411941414100800F000831610
:100D96000313141CCF2ED02ED32E83120313130845
:100DA60070088312930083160313141CDB2EDC2EAB
:100DB600D62E080083120313071305300A128A1170
:100DC600C9260A128A110A128A119B260A128A1148
:100DD600F1007108F2008312031307177208013934
:100DE6000800F4007408F3007308F5000A2F0030B9
:100DF6000A128A11A8260A128A11F30075088400BD
:100E06007308831380000130F3007308F50701307F
:100E1600F1020030031CF203F202710A031D172FC0
:100E2600720A031D172F182FFA2E08000A128A11AC
:100E3600DD260A128A11003A031D222F232F192FAD
:100E460083120313071303300A128A11C9260A12E2
:100E56008A1177080A128A11C9260A128A11760897
:100E66000A128A11C9260A128A117A08F20079082A
:100E7600F10078080A128A11F4260A128A118312DE
:100E86000313071708000A128A11DD260A128A11AF
:100E9600003A031D4F2F502F462F831203130713BB
:100EA60006300A128A11C9260A128A1183120313FE
:100EB6000717071302300A128A11C9260A128A1165
:100EC60074080A128A11C9260A128A1173080A12AC
:100ED6008A11C9260A128A1175080A128A11C926A8
:100EE6000A128A11831203130717080083160313C5
:100EF60086018312031386018316031307130A124E
:100F06008A11B7260A128A1183120313AA012A0824
:100F1600FB00FC017B08F3007C08F4002A08FD00B6
:100F26007D08F5000A128A1146270A128A11013035
:100F3600FB007B0883120313AA0764302A02031CF2
:100F4600A52FA62F8A2F0030F600F7002030FB00D1
:100F56007B08F8000A30F9000030FA000A128A11FC
:100F660019270A128A1183120313AA012A08203E9E
:100F760084008313000886000D30FD00AF30FC00AE
:100F8600B630FB00FB0BC52FFC0BC52FFD0BC52F89
:100F960000000130FB007B0883120313AA070A3006
:100FA6002A02031CD72FD82FB92FAA012A08203EC0
:100FB60084008313000886000D30FD00AF30FC006E
:100FC600B630FB00FB0BE52FFC0BE52FFD0BE52FE9
:100FD60000000130FB007B0883120313AA070A30C6
:100FE6002A02031CF72FF82FD92FD82F0A128A119D
:0A0FF600002883010A128A11792FE6
:02400E003A3F37
:00000001FF
