:020000040000FA
:060000000A128A11FC2F18
:100F2A0083160313860101308312031386000130EE
:100F3A0086000D30F200AF30F100B630F000F00B51
:100F4A00A42FF10BA42FF20BA42F0000F30103101E
:100F5A0083120313860D0D30F200AF30F100B63064
:100F6A00F000F00BB62FF10BB62FF20BB62F0000E4
:100F7A000130F0007008F30708307302031CC62F13
:100F8A00C72FAC2F831203138601803086000D30E1
:100F9A00F200AF30F100B630F000F00BD22FF10BB7
:100FAA00D22FF20BD22F0000F30103108312031386
:100FBA00860C0D30F200AF30F100B630F000F00BC5
:100FCA00E42FF10BE42FF20BE42F00000130F000C4
:100FDA007008F30708307302031CF42FF52FDA2F79
:100FEA008312031386019C2F0A128A110028830197
:060FFA000A128A11952F76
:02400E003A3F37
:00000001FF
