:020000040000FA
:060000000A128A11EE2F26
:100B8A003F3406345B344F3466346D347D34073475
:100B9A00FF346F347E088A007F0882000A128A11A5
:100BAA00CF250A128A118000840A04087D060319D7
:100BBA000034FF0A0319FE0AD32DF601F31FE62DAE
:100BCA00E72DEE2DF209F309F20A0319F30AF601E9
:100BDA00F60AF11FF12DF22DF72DF009F109F00AAD
:100BEA000319F10A700871040319FC2DFD2D2C2E2E
:100BFA00F501F50A0B2E01300310F00DF10DFF3E41
:100C0A00031D012E0130F4007408F507F11F0E2EA2
:100C1A000F2E002E71087302031D152E7008720222
:100C2A00031C182E192E1F2E7008F2027108031CBD
:100C3A00F303F30201300310F10CF00CFF3E031D25
:100C4A00202E0130F502031D2B2E2C2E0F2E760896
:100C5A000319302E312E362EF209F309F20A03193E
:100C6A00F30A7308F1007208F0000800F601F11F98
:100C7A003F2E402E472EF009F109F00A0319F10A16
:100C8A00F601F60AF31F4A2E4B2E542EF209F309E7
:100C9A00F20A0319F30A0130F4007408F606F701A0
:100CAA00F8017008710403195B2E5C2E932EF5016E
:100CBA00F50A6A2E01300310F00DF10DFF3E031DF7
:100CCA00602E0130F4007408F507F11F6D2E6E2EA8
:100CDA005F2E01300310F70DF80DFF3E031D6F2E36
:100CEA0071087302031D7B2E70087202031C7E2E8C
:100CFA007F2E862E7008F2027108031CF303F3029A
:100D0A00771401300310F10CF00CFF3E031D872EFF
:100D1A000130F502031D922E932E6E2E76080319CA
:100D2A00972E982E9D2EF709F809F70A0319F80A43
:100D3A007808F1007708F00008008316031387018A
:100D4A00860183120313870107141930F900790801
:100D5A00AE000A30F0000030F1002E08F200F30174
:100D6A00F21BF3030A128A113B260A128A1170082F
:100D7A00F900790883120313AA000A30F000003040
:100D8A00F1002E08F200F301F21BF3030A128A1192
:100D9A00E2250A128A117008F900790883120313EE
:100DAA00AB00AC01AD012A08203E84008313000881
:100DBA00860087150730FA007D30F900F90BE32E1B
:100DCA00FA0BE32E8312031387112B08203E8400AB
:100DDA0083130008860007160730FA007D30F900F1
:100DEA00F90BF52EFA0BF52E8312031307120130B5
:100DFA00AC070318AD0A0030AD0701302D02F430FC
:100E0A0003192C02031C0A2F0B2FD82EFF30F900CE
:100E1A007908AE07AE1F122F132FAE2E07108714B4
:100E2A000530F9007908AE000A30F0000030F10010
:100E3A002E08F200F301F21BF3030A128A113B2671
:100E4A000A128A117008F900790883120313AA009A
:100E5A000A30F0000030F1002E08F200F301F21B14
:100E6A00F3030A128A11E2250A128A117008F9009C
:100E7A00790883120313AB00AC01AD012A08203EA6
:100E8A00840083130008860087150730FA007D3036
:100E9A00F900F90B4E2FFA0B4E2F83120313871109
:100EAA002B08203E840083130008860007160730AB
:100EBA00FA007D30F900F90B602FFA0B602F8312CC
:100ECA00031307120130AC070318AD0A0030AD074F
:100EDA0001302D02F43003192C02031C752F762FD2
:100EEA00432FFF30F9007908AE07AE1F7D2F7E2F02
:100EFA00192F871007151430F9007908AE000A3047
:100F0A00F0000030F1002E08F200F301F21BF303A7
:100F1A000A128A113B260A128A117008F900790806
:100F2A0083120313AA000A30F0000030F1002E08E1
:100F3A00F200F301F21BF3030A128A11E2250A12E4
:100F4A008A117008F900790883120313AB00AC0107
:100F5A00AD012A08203E8400831300088600871505
:100F6A000730FA007D30F900F90BB92FFA0BB92FC7
:100F7A008312031387112B08203E84008313000871
:100F8A00860007160730FA007D30F900F90BCB2FDF
:100F9A00FA0BCB2F8312031307120130AC07031885
:100FAA00AD0A0030AD0701302D02F43003192C02CE
:100FBA00031CE02FE12FAE2FFF30F9007908AE07AE
:100FCA00AE1FE82FE92F842F0711A92E0A128A11C2
:100FDA00002883132A30FD000530FE00C530FF00CB
:100FEA00203084000A128A11D3250A128A11830139
:060FFA000A128A11A22E6A
:02400E003A3F37
:00000001FF
