:020000040000FA
:060000000A128A11FC2F18
:100E16008316031306108610831203130614861412
:100E260083160313071587110716871294131413D5
:100E36008312031394131413941614129411141199
:100E4600941414100800F300302F831203130610B5
:100E5600402F831203138610402F7308F100F2010E
:100E66007208003A0319382F402F7108013A031906
:100E7600282F033A03192C2F402F83120313071927
:100E8600452F462F402F83160313141C4B2F4C2F30
:100E96004F2F8312031313087008831293008C1DBF
:100EA600552F562F522F071D592F5A2F562F0614DE
:100EB60086140800F200672F831203130610772F9B
:100EC600831203138610772F7208F000F101710860
:100ED600003A03196F2F772F7008013A03195F2F15
:100EE600033A0319632F772F8312031307197C2FF5
:100EF6007D2F772F93018C1D812F822F7E2F8316B6
:100F06000313141C872F882F822F831203131308B1
:100F1600F0007008F300071D912F922F8E2F0614F4
:100F26008614730808000730831603139F00850193
:100F3600831203138501FF308316031388000A12F8
:100F46008A110B270A128A11831203130818AC2F71
:100F5600AD2FCA2F8230F500DD30F400F40BB12F2F
:100F6600F50BB12FB62FAA30F4007408F00001304B
:100F76000A128A1126270A128A11FF30F400740811
:100F8600F00002300A128A1126270A128A118312E9
:100F960003138818CF2FD02FE22F8230F500DD30D3
:100FA600F400F40BD42FF50BD42FD92F01300A12ED
:100FB6008A115D270A128A11831203138500081904
:100FC600E52FE62FA72F8230F500DD30F400F40B75
:100FD600EA2FF50BEA2FEF2F02300A128A115D274E
:100FE6000A128A11831203138500A72F0A128A1187
:0A0FF600002883010A128A11962FC9
:02400E003A3F37
:00000001FF
