:020000040000FA
:060000000A128A110E280D
:10000800FE00030EF2000408F3000A08F4000A12C6
:100018008A1166290A128A11112883133530FD00C6
:100028000130FE00ED30FF002B3084000A128A11E7
:10003800D2210A128A11B60183010A128A113529BE
:1000480083120313A201F61F2A282B283228F50948
:10005800F609F50A0319F60AA201A20AF81F3528BB
:1000680036283F28F709F809F70A0319F80A013072
:10007800A0002008A206A301A401750876040319AC
:10008800462847287E28A101A10A552801300310D7
:10009800F50DF60DFF3E031D4B280130A00020088A
:1000A800A107F61F582859284A2801300310A30D24
:1000B800A40DFF3E031D5A2876087802031D662802
:1000C80075087702031C69286A2871287508F702E1
:1000D8007608031CF803F802231401300310F60C09
:1000E800F50CFF3E031D72280130A102031D7D2877
:1000F8007E28592822080319822883288828A309DA
:10010800A409A30A0319A40A2408F6002308F50081
:10011800080083120313A201F81F932894289B2830
:10012800F709F809F70A0319F80AA201A20AF61F43
:100138009E289F28A428F509F609F50A0319F60A46
:10014800750876040319A928AA28D928A101A10AA3
:10015800B82801300310F50DF60DFF3E031DAE283B
:100168000130A0002008A107F61FBB28BC28AD2835
:1001780076087802031DC22875087702031CC52873
:10018800C628CC287508F7027608031CF803F8027D
:1001980001300310F60CF50CFF3E031DCD2801308D
:1001A800A102031DD828D928BC2822080319DD2854
:1001B800DE28E328F709F809F70A0319F80A780886
:1001C800F6007708F5000800831203130814881452
:1001D80088110A30F5000030F6002608F8002508D6
:1001E800F7000A128A118D200A128A1175082B3E0F
:1001F80084008313000883120313860007308312D8
:100208000313A8007C30A700A70B0829A80B08290E
:10021800000083120313881508110A30F500003016
:10022800F6002608F8002508F7000A128A1124208B
:100238000A128A1175082B3E840083130008831262
:1002480003138600073083120313A8007C30A7002D
:10025800A70B2C29A80B2C290000831203130815BF
:1002680008000A128A11B6210A128A110730831669
:1002780003139F00FF3085008601081088100811BD
:100288008811831203130508A9002908B500360848
:10029800A900AA012908A5002A08A6000A128A119D
:1002A800E8200A128A11C33083120313AA00CC3043
:1002B800A900A90B5D29AA0B5D29000045290A128E
:1002C8008A110E28831203138C1D6B296C29892926
:1002D80083160313141971297229782936300A12E2
:1002E8008A1192210A128A1183160313141D7D297B
:1002F8007E2986298312031335080A128A11E121FF
:100308000A128A11831203138C1174088A00730865
:100318008400720E8300FE0E7E0E0900F100831623
:100328000313941A98299929A529831203131308EA
:10033800F00071088400700883138000710884003D
:10034800800183128C1114138C1DAB29AC29A829A8
:1003580014121308F00071088400700883138000D9
:10036800141608008B170B17831603138C158312AA
:1003780003138C118316031387150716363083125F
:100388000313940040308316031394001030930035
:10039800111408007E088A007F0882000A128A1158
:1003A800CE210A128A118000840A04087D060319E6
:1003B8000034FF0A0319FE0AD229F00070088312DC
:1003C8000313930014168C118C1DEB29EC29E829D2
:1003D80008003F3406345B344F3466346D347D3462
:0603E8000734FF346F34FE
:02400E003A3F37
:00000001FF
