:020000040000FA
:060000000A128A110C280F
:10000800FE00030EF0000A08F1000A128A112329E3
:100018000A128A110F28F901FA0183120313AA019F
:10002800AB01AC01AD0183010A128A118428831245
:100038000313A101F31F212822282928F209F30913
:10004800F20A0319F30AA101A10AF51F2C282D2889
:100058003628F409F509F40A0319F50A0130F600FF
:100068007608A106A201A3017208730403193D28AA
:100078003E287528A001A00A4C2801300310F20D73
:10008800F30DFF3E031D42280130F6007608A00755
:10009800F31F4F285028412801300310A20DA30D4B
:1000A800FF3E031D512873087502031D5D28720861
:1000B8007402031C6028612868287208F402730817
:1000C800031CF503F502221401300310F30CF20CA3
:1000D800FF3E031D69280130A002031D74287528FE
:1000E80050282108031979287A287F28A209A3090A
:1000F800A20A0319A30A2308F3002208F200080041
:1001080083120313A801A90183160313061086108E
:100118000611861106128612831203138615061617
:10012800861606108316031381128111011181109E
:100138000110D9308312031381000B118B168B1712
:100148009030A4000130A5000A128A11D6200A12A4
:100158008A11831203130818B228B328AD28013076
:10016800A8070318A90A0030A907823083120313CD
:10017800A700DD30A600A60BBF28A70BBF28831257
:100188000313081CC828C928C3282908F30028080D
:10019800F2000A128A1152210A128A11AD280A1293
:1001A8008A110C2883120313A51FDB28DC28FC28DE
:1001B80086102409F7002509F800F70A0319F80A38
:1001C8007708AA007808AB00FE30F200FF30F30091
:1001D8002508F5002408F4000A128A111B200A12C7
:1001E8008A11730883120313AD007208AC00222928
:1001F8002508803AFF0080307F02031D0529013061
:100208002402031C082909291C29831203138614B4
:100218002508AB002408AA002508F8002408F700E0
:100228000310F80CF70C7708AC007808AD00222909
:1002380083120313AA01AB01AC01AD0108000B1D29
:10024800262927294B29D9308312031381000B1142
:100258000130F9070318FA0A0030FA077A082D0264
:10026800031D382979082C02031C3B293C293E2907
:1002780006153F2906112B087A02031D45292A086D
:100288007902031C482949294B29F901FA01710807
:100298008A00700E8300FE0E7E0E09007218552922
:1002A80056295A298312031386105D2983120313D2
:0402B80086140800A0
:02400E003A3F37
:00000001FF
