:020000040000FA
:060000000A128A11FC2F18
:10001200F501F60170087104031910281128482807
:10002200F701F70A1F2801300310F00DF10DFF3E12
:10003200031D15280130F4007408F707F11F222868
:100042002328142801300310F50DF60DFF3E031D81
:10005200242871087302031D302870087202031CE1
:10006200332834283B287008F2027108031CF3037A
:10007200F302751401300310F10CF00CFF3E031D66
:100082003C280130F702031D472848282328760818
:10009200F1007508F0000800031083120313560DD7
:1000A200570DD8005808DE005E08031D59285A284B
:1000B20063280030D7000030D6000030D500003071
:1000C200D400C8285408D8005508D9005608DA00C8
:1000D2005708DB001F300310DB0CDA0CD90CD80CEC
:1000E200FF3E031D6C285808DC005C08DD00D617B3
:1000F200FF30D405FF30D505FF30D6050030D705D7
:100102009630DE02DE1F86288728A1285E08803A04
:10011200973E03188D288E288F285A280130031005
:10012200D70CD60CD50CD40CFF3E031D9028013001
:10013200D8005808DE07031D9F28A0288F28B8285A
:1001420020305E02031CA628A728B3285A280130B3
:10015200D8000310D40DD50DD60DD70DD80BAA2873
:100162000130DE025E08031DB728B828A8285D0802
:100172000319BC28BD28C828D409D509D609D7092E
:10018200D40A0319D50A0319D60A0319D70A080093
:10019200F80078080319CE28CF28E328F31FD228C5
:1001A200D328E3287009FA007109FB007209FC00E8
:1001B2007309FD00FA0A0319FB0A0319FC0A031961
:1001C200FD0AEB287308FD007208FC007108FB00B1
:1001D2007008FA007308720471047004031DF22897
:1001E200F328FC280030F3000030F2000030F10068
:1001F2000030F00082299630F4007408F9000E29CC
:100202000130F4007408F90701300310FD0CFC0CF6
:10021200FB0CFA0CFF3E031D0629FE307D05031D73
:1002220013291429012930290130F4007408F9072F
:100232000130FA07003003180130FB0700300318C1
:100242000130FC07003003180130FD0701300310B4
:10025200FD0CFC0CFB0CFA0CFF3E031D2829FF30A1
:100262007D05031D35293629152942290130F90258
:100272000130F4000310FA0DFB0DFC0DFD0DF40B23
:100282003B29FC1B452946294C29023079020318D7
:100292004B294C29372979184F2950295829FF30E1
:1002A200FA05FF30FB057F30FC05FF30FD0503102A
:1002B200F90C7908F400F501F601F7011830031082
:1002C200F40DF50DF60DF70DFF3E031D60297408C0
:1002D200FA047508FB047608FC047708FD04780824
:1002E2000319742975297A29F31F782979297A291A
:1002F200FD177D08F3007C08F2007B08F1007A0804
:10030200F00008000A128A15BF270A128A11073064
:1003120083120313DF005F08831603139F04061082
:10032200861483120313901090161012F601F60A27
:100332000130DF005F08F70001300A128A15EA2651
:100342000A128A11F601F60A153083120313DF002E
:100352005F08F70002300A128A15EA260A128A1189
:10036200831203130614623083120313E000653014
:10037200DF00DF0BBA29E00BBA2983120313061040
:10038200861CC429C529C12910148618C929CA295D
:10039200C62910100F08DF00E0015F08E4006008C2
:1003A200E50008300310E40DE50DFF3E031DD329DF
:1003B2000E08DF00E0015F08E4046008E504003095
:1003C20065027E3003196402031CE829E929992A8F
:1003D2007A3065021230031964020318F129F229F6
:1003E200992A6408F0006508F100F201F301003077
:1003F2000A128A11C9200A128A117308831203137E
:10040200A7007208A6007108A5007008A4003F307A
:10041200A3004C30A200CC30A100CD30A0000A12C3
:100422008A119B240A128A11831203132308C10022
:100432002208C0002108BF002008BE004230BD00D3
:100442006830BC000030BB000030BA000A128A11CA
:10045200BE220A128A11831203133D08D7003C08F8
:10046200D6003B08D5003A08D4000A128A114D2062
:100472000A128A11831203135508E3005408E2009A
:100482000B30DF005F08F8006430F0000030F1004C
:100492006308F3006208F2000A128A1109200A12A4
:1004A2008A117008303E83120313E0006008F900DD
:1004B20001300A128A150C270A128A110A30F80032
:1004C2000030F9000A30F0000030F100831203130B
:1004D2006308F3006208F2000A128A1109200A1264
:1004E2008A117108FB007008FA000A128A15852722
:1004F2000A128A117808303E0A128A15AA260A12AE
:100502008A110A30F8000030F900831203136308DD
:10051200FB006208FA000A128A1585270A128A115C
:100522007808303E0A128A15AA260A128A11A72AC8
:100532000B30DF005F08F6001130E0006008F700C2
:1005420001300A128A15EA260A128A11831203134B
:100552008E018F010D3083120313E100AF30E000F2
:10056200B530DF00DF0BB32AE00BB32AE10BB32A6D
:10057200BA2AB1290A128A110028831203134108E8
:100582008039C2004208CB004108C2004207C300C2
:100592004308D200C01FCE2ACF2AD02A52145208B2
:1005A2000319D42AD52AE52A520A031DD92ADA2A9E
:1005B200E22A0030C1000030C0000030BF0000302D
:1005C200BE00C017C101ED2A0030C1000030C000DA
:1005D2000030BF000030BE003D088039C200420832
:1005E200CB063D08C2004207C3004308D300BC1F2C
:1005F200FB2AFC2AFD2A531453080319012B022B50
:10060200122B530A031D062B072B0F2B0030BD00A4
:100612000030BC000030BB000030BA00BC17BD0186
:100622001A2B0030BD000030BC000030BB0000308F
:10063200BA003D083C043B043A04031D212B222B43
:100642003B2B0030C1000030C0000030BF00003042
:10065200BE008030C0047F30C1044B08C200420893
:10066200C1044108BD004008BC003F08BB003E0871
:10067200BA009A2C5208031D3F2B402B492B003005
:10068200BD000030BC000030BB000030BA009A2C24
:100692005208C200C3014308C50053084202C40005
:1006A200031CC50344087F3ECC0045080318013EE5
:1006B200003ECD004108CA004008C9003F08C800FA
:1006C2003E08C7000030C1000030C0000030BF004B
:1006D2000030BE000030D1000030D0000030CF002A
:1006E2000030CE00D301BF2B53080319792B7A2B8C
:1006F2009A2B0130C2000310C70DC80DC90DCA0DD7
:10070200C20B7C2B0130C2000310BE0DBF0DC00D09
:10071200C10DC20B852BD11F8F2B902B912B3E1419
:100722000130C2000310CE0DCF0DD00DD10DC20B82
:10073200932B3D084A02031DA82B3C084902031DC6
:10074200A82B3B084802031DA82B3A084702031CAA
:10075200AB2BAC2BBB2B51173A08C7023B08031C2F
:100762003B0FC8023C08031C3C0FC9023D08031C96
:100772003D0FCA020130C2004208D3071A305302A9
:10078200031CC42BC52B752B4A0849044804470493
:100792000319CC2BCD2BEC2B4E14EC2B0130C200C9
:1007A2000310BE0DBF0DC00DC10DC20BD12BD11F49
:1007B200DB2BDC2BDD2B3E140130C2000310CE0DEF
:1007C200CF0DD00DD10DC20BDF2BFF30CC0703189C
:1007D200CD0AFF30CD07C01FEF2BF02BCF2BD3015B
:1007E200D11FF42BF52B112CFF304E05C200FF3028
:1007F2004F05C300FF305005C4007F305105C500CE
:1008020045084404430442040319082C092C0C2C07
:10081200D301D30A112C3E1C0F2C102C112C092CA5
:1008220053080319152C162C472C0130BE07003033
:1008320003180130BF07003003180130C007003031
:1008420003180130C107411C272C282C472C3E08D5
:10085200C2003F08C3004008C4004108C50001307F
:10086200C600450DC50CC40CC30CC20CC60B322C01
:100872004508C1004408C0004308BF004208BE004A
:100882000130CC070318CD0A0030CD074D08803A5D
:10089200FF0080307F02031D502CFF304C02031CEE
:1008A200532C542C622CFF3083120313CC000030E3
:1008B200CD000030C1000030C0000030BF00003069
:1008C200BE00831203134D08803AFF0080307F027E
:1008D200031D6D2C01304C020318702C712C7E2CE0
:1008E20083120313CC01CD010030C1000030C000DF
:1008F2000030BF000030BE00CB01831203134C084E
:10090200C2004208D200521C872C882C8A2CC017A5
:100912008E2C7F30C2004208C0055208C20003106C
:10092200420CC3004308C1004B08C2004208C10484
:10093200322B08008312031323088039A8002808E9
:10094200AD002308A8002807A9002908B300A21FA8
:10095200AB2CAC2CAD2C331433080319B12CB22CB4
:10096200C12C330A031DB62CB72CBF2C0030A300B8
:100972000030A2000030A1000030A000A217C92C54
:100982000030A3000030A2000030A1000030A0001F
:1009920027088039A8002808AD062708A8002807DC
:1009A200A9002908B200A61FD72CD82CD92C3214A2
:1009B20032080319DD2CDE2CED2C320A031DE22C49
:1009C200E32CEB2C0030A7000030A6000030A5007D
:1009D2000030A400A617F52C0030A7000030A600B6
:1009E2000030A5000030A40032080319F92CFA2CBB
:1009F200FF2C3308031DFE2CFF2C082D0030A30012
:100A02000030A2000030A1000030A000FB2F20081F
:100A1200A8002808F00026080A128A1530270A12B0
:100A22008A11710883120313B9007008B8003808DC
:100A3200A800A901AA01AB012B08B1002A08B00045
:100A42002908AF002808AE003908A800A901AA01A8
:100A5200AB012B08B7002A08B6002908B500280800
:100A6200B4002108A8002808F00025080A128A15F7
:100A720030270A128A11710883120313B900700811
:100A8200B8003808A800A901AA01AB012808AE07DE
:100A9200290803110318013E0319502DAF072A0834
:100AA20003110318013E0319572DB0072B08031138
:100AB2000318013E03195E2DB1073908A800A901E8
:100AC200AA01AB012808B407290803110318013E43
:100AD20003196C2DB5072A0803110318013E0319E7
:100AE200732DB6072B0803110318013E03197A2D43
:100AF200B7072208A8002808F00024080A128A155D
:100B020030270A128A11710883120313B900700880
:100B1200B8003808A800A901AA01AB012808AE074D
:100B2200290803110318013E0319982DAF072A085B
:100B320003110318013E03199F2DB0072B0803115F
:100B42000318013E0319A62DB1073908A800A9010F
:100B5200AA01AB012808B407290803110318013EB2
:100B62000319B42DB5072A0803110318013E03190E
:100B7200BB2DB6072B0803110318013E0319C22D22
:100B8200B7070830A8000310AE0DAF0DB00DB10DC0
:100B9200A80BC42D2108A8002808F00024080A1276
:100BA2008A1530270A128A11710883120313B900B9
:100BB2007008B8003808A8003908A900AA01AB01DA
:100BC2002808AE07290803110318013E0319EA2D6C
:100BD200AF072A0803110318013E0319F12DB007CC
:100BE2002B0803110318013E0319F82DB107200841
:100BF200A8002808F00025080A128A1530270A12D0
:100C02008A11710883120313B9007008B8003808FA
:100C1200A8003908A900AA01AB012808AE072908D3
:100C220003110318013E0319172EAF072A080311F7
:100C32000318013E03191E2EB0072B0803110318D7
:100C4200013E0319252EB1070830A8000310AE0D8E
:100C5200AF0DB00DB10DA80B272E2008A800280853
:100C6200F00024080A128A1530270A128A11710824
:100C720083120313B9007008B8003808A8003908B5
:100C8200A900AA01AB012808AE072908031103181D
:100C9200013E03194D2EAF072A0803110318013E26
:100CA2000319542EB0072B0803110318013E031930
:100CB2005B2EB1072108A8002808F00026080A12B6
:100CC2008A1530270A128A11710883120313B90098
:100CD2007008B8003808A8003908A900AA01AB01B9
:100CE2002808B407290803110318013E03197A2EB4
:100CF200B5072A0803110318013E0319812EB6070E
:100D02002B0803110318013E0319882EB707220886
:100D1200A8002808F00025080A128A1530270A12AE
:100D22008A11710883120313B9007008B8003808D9
:100D3200A8003908A900AA01AB012808B4072908AC
:100D420003110318013E0319A72EB5072A08031140
:100D52000318013E0319AE2EB6072B080311031820
:100D6200013E0319B52EB7072208A8002808F00093
:100D720026080A128A1530270A128A11710883126C
:100D82000313B9007008B8003808A8003908A90090
:100D9200AA01AB0108300310A80DA90DAA0DAB0DD5
:100DA200FF3E031DCC2E2808B4072908031103189F
:100DB200013E0319DD2EB5072A0803110318013E6F
:100DC2000319E42EB6072B0803110318013E031979
:100DD200EB2EB7072E08A8002F08A9003008AA009A
:100DE2003108AB0018300310AB0CAA0CA90CA80CEC
:100DF200FF3E031DF42E2808B40729080311031827
:100E0200013E0319052FB5072A0803110318013EF5
:100E120003190C2FB6072B0803110318013E0319FF
:100E2200132FB7070830A8000310AE0DAF0DB00D99
:100E3200B10DA80B152F33083207A800A901A90D7F
:100E42002808823EB80029080318013EFF3EB90077
:100E5200472F0130A8000310B40DB50DB60DB70D24
:100E6200A80B2C2FB11F362F372F382F34140130F7
:100E7200A8000310AE0DAF0DB00DB10DA80B3A2FA7
:100E8200FF30B8070318B90AFF30B907B61F4A2F57
:100E92004B2F2A2FB201B11F4F2F502F6C2FFF3033
:100EA2002E05A800FF302F05A900FF303005AA004B
:100EB2007F303105AB002B082A04290428040319CA
:100EC200632F642F672FB201B20A6C2F341C6A2F72
:100ED2006B2F6C2F642F32080319702F712FA22FE2
:100EE2000130B407003003180130B5070030031891
:100EF2000130B607003003180130B707371C822FC4
:100F0200832FA22F3408A8003508A9003608AA00AA
:100F12003708AB000130AC002B0DAB0CAA0CA90CAE
:100F2200A80CAC0B8D2F2B08B7002A08B600290895
:100F3200B5002808B4000130B8070318B90A003018
:100F4200B9073908803AFF0080307F02031DAB2FBA
:100F5200FF303802031CAE2FAF2FBA2F7F3083121F
:100F62000313B7008030B6000030B5000030B40083
:100F7200EF2F831203133908803AFF0080307F027B
:100F8200031DC52F013038020318C82FC92FD52FD2
:100F9200003083120313B7000030B6000030B500F2
:100FA2000030B400AD01EF2F831203133808A800FC
:100FB2002808B300FF30B405FF30B5057F30B60511
:100FC2000030B705331CE62FE72FE82FB61733089A
:100FD200A8000310280CA9002908B7002D08A800B2
:100FE2002808B7043708A3003608A2003508A10074
:100FF2003408A000080083010A128A1183290830EC
:101002008A000408840A8207003444346934733441
:10101200743461346E34633465343A342034583471
:101022005834583463346D34003440345F344034BF
:0A10320000344C34563451340034BD
:101D3800F1008312031306137108870086178613B0
:101D48004230F000F00BA62E00000800F2008312CB
:101D58000313061772088700861786137208F000A7
:101D680003300310F00DFF3E031DB52E0310700D58
:101D78008700861786130730F1007D30F000F00BDE
:101D8800C32EF10BC32E0800F400F501DC2E7508F4
:101D9800740784000A128A1500200A128A150A128A
:101DA8008A15AA260A128A150130F3007308F50766
:101DB8007508740784000A128A1500200A128A1509
:101DC800003A031DE82EE92ECB2E0800F90079030E
:101DD8000319EF2EF02EF52EC030FA000030FB006C
:101DE800F92E8030FA000030FB0076087A07FF3EB3
:101DF800F8007808FC007C080A128A1557270A128E
:101E08008A1577080A128A15C8260A128A15080040
:101E180083120313A00020030319132F142F192F63
:101E2800C030A1000030A2001D2F8030A10000307A
:101E3800A20078082107FF3EFA007A08A3002308C9
:101E48000A128A1557270A128A1579080A128A155A
:101E5800AA260A128A150800F800F401F50170088C
:101E6800F200F3017208F6007308F700781C3D2FA2
:101E78003E2F442F7608F4070318F50A7708F5076C
:101E880001300310F60DF70DFF3E031D452F03101B
:101E9800F80C7808031D512F522F3A2F7508F100BE
:101EA8007408F0000800F200831203130613720886
:101EB8008700861786137208F00003300310F00DB0
:101EC800FF3E031D622F0310700D870086178613CF
:101ED800033072020318712F722F7C2F0D30F1001E
:101EE800FB30F000F00B762FF10B762F7B2F842F31
:101EF8000730F1007D30F000F00B802FF10B802FC0
:101F080008007808790403198A2F8B2FBA2FFD014E
:101F1800FD0A992F01300310F80DF90DFF3E031D3E
:101F28008F2F0130FC007C08FD07F91F9C2F9D2F87
:101F38008E2F79087B02031DA32F78087A02031CD1
:101F4800A62FA72FAD2F7808FA027908031CFB03E8
:101F5800FB0201300310F90CF80CFF3E031DAE2FF5
:101F68000130FD02031DB92FBA2F9D2F7B08F90000
:101F78007A08F800080083160313061386138701EE
:101F880030300A128A159C260A128A152130F4006C
:101F98007630F300F30BCE2FF40BCE2F0000303049
:101FA8000A128A159C260A128A150730F4007D3019
:101FB800F300F30BDD2FF40BDD2F30300A128A15F6
:101FC8009C260A128A1528300A128A159C260A129B
:101FD8008A1528300A128A1557270A128A150130DD
:101FE8000A128A1557270A128A150E300A128A15FC
:081FF80057270A128A150800A0
:02400E003A3F37
:00000001FF
