:1000000001308A0027290000FF00030E8301A100B0
:100010000A08A0008A010408A2007708A300780853
:10002000A4007908A5007A08A600831383128B1E0A
:100030001B280B192C28220884002308F700240809
:10004000F8002508F9002608FA0020088A00210E89
:100050008300FF0E7F0E09008A110A122F280B1150
:10006000D9308100A70803194B28A90A0319AA0A45
:100070002A082E02031C4728031D422829082D02A6
:10008000031C47280615831606114A2883120611F9
:10009000831606118312A80803196428AB0A0319F2
:1000A000AC0A2C083202031C6028031D5B282B08B5
:1000B0003102031C60288817831688136328831273
:1000C000881383168813831230082A02031C7028B1
:1000D000031D6E282F082902031C7028AA01A901FC
:1000E00034082C02031C7C28031D7A2833082B02B9
:1000F000031C7C28AC01AB010B118A110A121B28CE
:100100003A083C068039BE00BA1F8B28B909BA09E3
:10011000B90A0319BA0ABC1F9228BB09BC09BB0A59
:100120000319BC0AF801F901F701FA013C08031DA3
:100130009C283B080319B6281030BD000310B90DE8
:10014000BA0DF70DFA0D3C087A02031DA9283B08E9
:100150007702031CB2283B08F702031CFA033C0891
:10016000FA020314F80DF90DBD0B9E28BE1FBD2821
:10017000F809F909F80A0319F90A0800B61FD42882
:10018000FF30A7003608FA003508B61FD02835081A
:10019000003CF700FA013608031C360FFA02770814
:1001A000B5007A08B600E128B61BE028B608031DA2
:1001B000DD283508003C0318E0280130A700E128BD
:1001C000A7013608B0003508AF003608BA00350878
:1001D000B900BC010230BB0080207808AD0079086E
:1001E000AE00B81F0729FF30A8003808FA0037080A
:1001F000B81F03293708003CF700FA013808031C30
:10020000380FFA027708B7007A08B8001429B81B2B
:100210001329B808031D10293708003C03181329B7
:100220000130A8001429A8013808B4003708B30029
:100230003808BA003708B900BC010230BB00802082
:100240007808B1007908B2008A110A12512903080E
:100250001F398300AA01A901AC01AB0183161F1449
:100260009F141F159F1107309C0083130108C0398C
:100270008100D930831281000B118B16C0308B04A2
:1002800083160611831206118316881383128813AE
:100290000130B6009030B500FE30B8007030B700C5
:0602A000BE28482963009E
:02400E00723FFF
:00000001FF
;PIC16F877A
;CRC=04F6  CREATED="23-Feb-22 12:26"
