:020000040000FA
:060000000A128A11FC2F18
:100F300083160313061486140615071087108312F0
:100F40000313071087100618A62FA72FC32F823070
:100F5000F100DD30F000F00BAB2FF10BAB2FB02F19
:100F6000031083120313071C03140318B82FBC2F9C
:100F7000831203130714BF2F831203130710061CD9
:100F8000C22FC32FBF2F8618C62FC72FE32F823043
:100F9000F100DD30F000F00BCB2FF10BCB2FD02F79
:100FA000031083120313871C03140318D82FDC2F9C
:100FB000831203138714DF2F831203138710861CF9
:100FC000E22FE32FDF2F0619E62FE72FA32F823022
:100FD000F100DD30F000F00BEB2FF10BEB2FF02FD9
:100FE0008312031387140714061DF72FF82FF42F0D
:100FF000A32F0A128A11002883010A128A11982F3E
:02400E003A3F37
:00000001FF
